{
  "_format": "hh-sol-artifact-1",
  "contractName": "NFTTicket721",
  "sourceName": "contracts/NFTTicket721.sol",
  "abi": [
    {
      "inputs": [],
      "stateMutability": "nonpayable",
      "type": "constructor"
    },
    {
      "inputs": [],
      "name": "contractBalanceIsEmpty",
      "type": "error"
    },
    {
      "anonymous": false,
      "inputs": [
        {
          "indexed": true,
          "internalType": "address",
          "name": "owner",
          "type": "address"
        },
        {
          "indexed": true,
          "internalType": "address",
          "name": "approved",
          "type": "address"
        },
        {
          "indexed": true,
          "internalType": "uint256",
          "name": "tokenId",
          "type": "uint256"
        }
      ],
      "name": "Approval",
      "type": "event"
    },
    {
      "anonymous": false,
      "inputs": [
        {
          "indexed": true,
          "internalType": "address",
          "name": "owner",
          "type": "address"
        },
        {
          "indexed": true,
          "internalType": "address",
          "name": "operator",
          "type": "address"
        },
        {
          "indexed": false,
          "internalType": "bool",
          "name": "approved",
          "type": "bool"
        }
      ],
      "name": "ApprovalForAll",
      "type": "event"
    },
    {
      "anonymous": false,
      "inputs": [
        {
          "indexed": true,
          "internalType": "address",
          "name": "previousOwner",
          "type": "address"
        },
        {
          "indexed": true,
          "internalType": "address",
          "name": "newOwner",
          "type": "address"
        }
      ],
      "name": "OwnershipTransferred",
      "type": "event"
    },
    {
      "anonymous": false,
      "inputs": [
        {
          "indexed": true,
          "internalType": "address",
          "name": "from",
          "type": "address"
        },
        {
          "indexed": true,
          "internalType": "address",
          "name": "to",
          "type": "address"
        },
        {
          "indexed": true,
          "internalType": "uint256",
          "name": "tokenId",
          "type": "uint256"
        }
      ],
      "name": "Transfer",
      "type": "event"
    },
    {
      "inputs": [],
      "name": "TOTAL_TICKETS",
      "outputs": [
        {
          "internalType": "uint256",
          "name": "",
          "type": "uint256"
        }
      ],
      "stateMutability": "view",
      "type": "function"
    },
    {
      "inputs": [
        {
          "internalType": "address",
          "name": "to",
          "type": "address"
        },
        {
          "internalType": "uint256",
          "name": "tokenId",
          "type": "uint256"
        }
      ],
      "name": "approve",
      "outputs": [],
      "stateMutability": "nonpayable",
      "type": "function"
    },
    {
      "inputs": [],
      "name": "availableTicketsA",
      "outputs": [
        {
          "internalType": "uint256",
          "name": "",
          "type": "uint256"
        }
      ],
      "stateMutability": "view",
      "type": "function"
    },
    {
      "inputs": [],
      "name": "availableTicketsB",
      "outputs": [
        {
          "internalType": "uint256",
          "name": "",
          "type": "uint256"
        }
      ],
      "stateMutability": "view",
      "type": "function"
    },
    {
      "inputs": [],
      "name": "availableTicketsC",
      "outputs": [
        {
          "internalType": "uint256",
          "name": "",
          "type": "uint256"
        }
      ],
      "stateMutability": "view",
      "type": "function"
    },
    {
      "inputs": [
        {
          "internalType": "address",
          "name": "owner",
          "type": "address"
        }
      ],
      "name": "balanceOf",
      "outputs": [
        {
          "internalType": "uint256",
          "name": "",
          "type": "uint256"
        }
      ],
      "stateMutability": "view",
      "type": "function"
    },
    {
      "inputs": [
        {
          "internalType": "address",
          "name": "tokenaddress",
          "type": "address"
        }
      ],
      "name": "checkIn",
      "outputs": [],
      "stateMutability": "nonpayable",
      "type": "function"
    },
    {
      "inputs": [
        {
          "internalType": "address",
          "name": "tokenaddress",
          "type": "address"
        }
      ],
      "name": "checkInStage1",
      "outputs": [],
      "stateMutability": "nonpayable",
      "type": "function"
    },
    {
      "inputs": [
        {
          "internalType": "address",
          "name": "tokenaddress",
          "type": "address"
        }
      ],
      "name": "checkInStage2",
      "outputs": [],
      "stateMutability": "nonpayable",
      "type": "function"
    },
    {
      "inputs": [
        {
          "internalType": "uint256",
          "name": "",
          "type": "uint256"
        }
      ],
      "name": "checkedIn",
      "outputs": [
        {
          "internalType": "bool",
          "name": "",
          "type": "bool"
        }
      ],
      "stateMutability": "view",
      "type": "function"
    },
    {
      "inputs": [
        {
          "internalType": "uint256",
          "name": "",
          "type": "uint256"
        }
      ],
      "name": "checkedInStage1",
      "outputs": [
        {
          "internalType": "bool",
          "name": "",
          "type": "bool"
        }
      ],
      "stateMutability": "view",
      "type": "function"
    },
    {
      "inputs": [
        {
          "internalType": "uint256",
          "name": "",
          "type": "uint256"
        }
      ],
      "name": "checkedInStage2",
      "outputs": [
        {
          "internalType": "bool",
          "name": "",
          "type": "bool"
        }
      ],
      "stateMutability": "view",
      "type": "function"
    },
    {
      "inputs": [],
      "name": "closeSale",
      "outputs": [],
      "stateMutability": "nonpayable",
      "type": "function"
    },
    {
      "inputs": [
        {
          "internalType": "uint256",
          "name": "tokenId",
          "type": "uint256"
        }
      ],
      "name": "getApproved",
      "outputs": [
        {
          "internalType": "address",
          "name": "",
          "type": "address"
        }
      ],
      "stateMutability": "view",
      "type": "function"
    },
    {
      "inputs": [
        {
          "internalType": "address",
          "name": "owner",
          "type": "address"
        },
        {
          "internalType": "address",
          "name": "operator",
          "type": "address"
        }
      ],
      "name": "isApprovedForAll",
      "outputs": [
        {
          "internalType": "bool",
          "name": "",
          "type": "bool"
        }
      ],
      "stateMutability": "view",
      "type": "function"
    },
    {
      "inputs": [
        {
          "internalType": "uint256",
          "name": "tokenId",
          "type": "uint256"
        }
      ],
      "name": "isCheckedIn",
      "outputs": [
        {
          "internalType": "bool",
          "name": "",
          "type": "bool"
        }
      ],
      "stateMutability": "view",
      "type": "function"
    },
    {
      "inputs": [],
      "name": "mintA",
      "outputs": [],
      "stateMutability": "payable",
      "type": "function"
    },
    {
      "inputs": [],
      "name": "mintB",
      "outputs": [],
      "stateMutability": "payable",
      "type": "function"
    },
    {
      "inputs": [],
      "name": "mintC",
      "outputs": [],
      "stateMutability": "payable",
      "type": "function"
    },
    {
      "inputs": [],
      "name": "mintPriceA",
      "outputs": [
        {
          "internalType": "uint256",
          "name": "",
          "type": "uint256"
        }
      ],
      "stateMutability": "view",
      "type": "function"
    },
    {
      "inputs": [],
      "name": "mintPriceB",
      "outputs": [
        {
          "internalType": "uint256",
          "name": "",
          "type": "uint256"
        }
      ],
      "stateMutability": "view",
      "type": "function"
    },
    {
      "inputs": [],
      "name": "mintPriceC",
      "outputs": [
        {
          "internalType": "uint256",
          "name": "",
          "type": "uint256"
        }
      ],
      "stateMutability": "view",
      "type": "function"
    },
    {
      "inputs": [],
      "name": "name",
      "outputs": [
        {
          "internalType": "string",
          "name": "",
          "type": "string"
        }
      ],
      "stateMutability": "view",
      "type": "function"
    },
    {
      "inputs": [],
      "name": "openSale",
      "outputs": [],
      "stateMutability": "nonpayable",
      "type": "function"
    },
    {
      "inputs": [],
      "name": "owner",
      "outputs": [
        {
          "internalType": "address",
          "name": "",
          "type": "address"
        }
      ],
      "stateMutability": "view",
      "type": "function"
    },
    {
      "inputs": [
        {
          "internalType": "uint256",
          "name": "tokenId",
          "type": "uint256"
        }
      ],
      "name": "ownerOf",
      "outputs": [
        {
          "internalType": "address",
          "name": "",
          "type": "address"
        }
      ],
      "stateMutability": "view",
      "type": "function"
    },
    {
      "inputs": [],
      "name": "renounceOwnership",
      "outputs": [],
      "stateMutability": "nonpayable",
      "type": "function"
    },
    {
      "inputs": [
        {
          "internalType": "address",
          "name": "from",
          "type": "address"
        },
        {
          "internalType": "address",
          "name": "to",
          "type": "address"
        },
        {
          "internalType": "uint256",
          "name": "tokenId",
          "type": "uint256"
        }
      ],
      "name": "safeTransferFrom",
      "outputs": [],
      "stateMutability": "nonpayable",
      "type": "function"
    },
    {
      "inputs": [
        {
          "internalType": "address",
          "name": "from",
          "type": "address"
        },
        {
          "internalType": "address",
          "name": "to",
          "type": "address"
        },
        {
          "internalType": "uint256",
          "name": "tokenId",
          "type": "uint256"
        },
        {
          "internalType": "bytes",
          "name": "data",
          "type": "bytes"
        }
      ],
      "name": "safeTransferFrom",
      "outputs": [],
      "stateMutability": "nonpayable",
      "type": "function"
    },
    {
      "inputs": [],
      "name": "saleIsActive",
      "outputs": [
        {
          "internalType": "bool",
          "name": "",
          "type": "bool"
        }
      ],
      "stateMutability": "view",
      "type": "function"
    },
    {
      "inputs": [
        {
          "internalType": "address",
          "name": "operator",
          "type": "address"
        },
        {
          "internalType": "bool",
          "name": "approved",
          "type": "bool"
        }
      ],
      "name": "setApprovalForAll",
      "outputs": [],
      "stateMutability": "nonpayable",
      "type": "function"
    },
    {
      "inputs": [
        {
          "internalType": "bytes4",
          "name": "interfaceId",
          "type": "bytes4"
        }
      ],
      "name": "supportsInterface",
      "outputs": [
        {
          "internalType": "bool",
          "name": "",
          "type": "bool"
        }
      ],
      "stateMutability": "view",
      "type": "function"
    },
    {
      "inputs": [],
      "name": "symbol",
      "outputs": [
        {
          "internalType": "string",
          "name": "",
          "type": "string"
        }
      ],
      "stateMutability": "view",
      "type": "function"
    },
    {
      "inputs": [
        {
          "internalType": "uint256",
          "name": "index",
          "type": "uint256"
        }
      ],
      "name": "tokenByIndex",
      "outputs": [
        {
          "internalType": "uint256",
          "name": "",
          "type": "uint256"
        }
      ],
      "stateMutability": "view",
      "type": "function"
    },
    {
      "inputs": [
        {
          "internalType": "address",
          "name": "owner",
          "type": "address"
        },
        {
          "internalType": "uint256",
          "name": "index",
          "type": "uint256"
        }
      ],
      "name": "tokenOfOwnerByIndex",
      "outputs": [
        {
          "internalType": "uint256",
          "name": "",
          "type": "uint256"
        }
      ],
      "stateMutability": "view",
      "type": "function"
    },
    {
      "inputs": [
        {
          "internalType": "uint256",
          "name": "tokenId",
          "type": "uint256"
        }
      ],
      "name": "tokenURI",
      "outputs": [
        {
          "internalType": "string",
          "name": "",
          "type": "string"
        }
      ],
      "stateMutability": "view",
      "type": "function"
    },
    {
      "inputs": [],
      "name": "totalSupply",
      "outputs": [
        {
          "internalType": "uint256",
          "name": "",
          "type": "uint256"
        }
      ],
      "stateMutability": "view",
      "type": "function"
    },
    {
      "inputs": [
        {
          "internalType": "address",
          "name": "from",
          "type": "address"
        },
        {
          "internalType": "address",
          "name": "to",
          "type": "address"
        },
        {
          "internalType": "uint256",
          "name": "tokenId",
          "type": "uint256"
        }
      ],
      "name": "transferFrom",
      "outputs": [],
      "stateMutability": "nonpayable",
      "type": "function"
    },
    {
      "inputs": [
        {
          "internalType": "address",
          "name": "newOwner",
          "type": "address"
        }
      ],
      "name": "transferOwnership",
      "outputs": [],
      "stateMutability": "nonpayable",
      "type": "function"
    },
    {
      "inputs": [
        {
          "internalType": "address",
          "name": "_owner",
          "type": "address"
        }
      ],
      "name": "walletOfOwner",
      "outputs": [
        {
          "internalType": "uint256[]",
          "name": "",
          "type": "uint256[]"
        }
      ],
      "stateMutability": "view",
      "type": "function"
    },
    {
      "inputs": [],
      "name": "withdraw",
      "outputs": [],
      "stateMutability": "nonpayable",
      "type": "function"
    }
  ],
  "bytecode": "0x60806040526005600d556008600e556005601055600360115560026012553480156200002a57600080fd5b506040518060400160405280600581526020017f50475469780000000000000000000000000000000000000000000000000000008152506040518060400160405280600481526020017f50475458000000000000000000000000000000000000000000000000000000008152508160009080519060200190620000af929190620001f1565b508060019080519060200190620000c8929190620001f1565b505050620000eb620000df6200012360201b60201c565b6200012b60201b60201c565b60405180606001604052806022815260200162004d9060229139600f90805190602001906200011c929190620001f1565b5062000306565b600033905090565b6000600b60009054906101000a900473ffffffffffffffffffffffffffffffffffffffff16905081600b60006101000a81548173ffffffffffffffffffffffffffffffffffffffff021916908373ffffffffffffffffffffffffffffffffffffffff1602179055508173ffffffffffffffffffffffffffffffffffffffff168173ffffffffffffffffffffffffffffffffffffffff167f8be0079c531659141344cd1fd0a4f28419497f9722a3daafe3b4186f6b6457e060405160405180910390a35050565b828054620001ff90620002d0565b90600052602060002090601f0160209004810192826200022357600085556200026f565b82601f106200023e57805160ff19168380011785556200026f565b828001600101855582156200026f579182015b828111156200026e57825182559160200191906001019062000251565b5b5090506200027e919062000282565b5090565b5b808211156200029d57600081600090555060010162000283565b5090565b7f4e487b7100000000000000000000000000000000000000000000000000000000600052602260045260246000fd5b60006002820490506001821680620002e957607f821691505b602082108114156200030057620002ff620002a1565b5b50919050565b614a7a80620003166000396000f3fe6080604052600436106102465760003560e01c806387b0aa3f11610139578063c87b56dd116100b6578063df6997ab1161007a578063df6997ab14610843578063e985e9c51461086e578063eb8d2444146108ab578063ee2f53fb146108d6578063ee55efee14610913578063f2fde38b1461092a57610246565b8063c87b56dd1461076b578063cabb5e95146107a8578063d2d9ee4c146107d3578063d6e0d73c14610810578063d9a59e331461081a57610246565b8063a36c50eb116100fd578063a36c50eb14610686578063a53bd026146106af578063abdd9744146106da578063afbd178214610717578063b88d4fde1461074257610246565b806387b0aa3f146105b15780638da5cb5b146105dc57806395d89b41146106075780639c51507214610632578063a22cb4651461065d57610246565b80633ccfd60b116101c75780635cabea5c1161018b5780635cabea5c146104eb5780636352211e1461051657806370a0823114610553578063715018a6146105905780638043cf2d146105a757610246565b80633ccfd60b1461040857806342842e0e1461041f578063438b6300146104485780634f6ccce71461048557806352bcaeec146104c257610246565b8063167ff46f1161020e578063167ff46f1461035657806318160ddd1461036d5780631c7f578a1461039857806323b872dd146103a25780632f745c59146103cb57610246565b806301ffc9a71461024b578063020865961461028857806306fdde03146102c5578063081812fc146102f0578063095ea7b31461032d575b600080fd5b34801561025757600080fd5b50610272600480360381019061026d9190613339565b610953565b60405161027f9190613381565b60405180910390f35b34801561029457600080fd5b506102af60048036038101906102aa91906133d2565b610965565b6040516102bc9190613381565b60405180910390f35b3480156102d157600080fd5b506102da610985565b6040516102e79190613498565b60405180910390f35b3480156102fc57600080fd5b50610317600480360381019061031291906133d2565b610a17565b60405161032491906134fb565b60405180910390f35b34801561033957600080fd5b50610354600480360381019061034f9190613542565b610a5d565b005b34801561036257600080fd5b5061036b610b75565b005b34801561037957600080fd5b50610382610b9a565b60405161038f9190613591565b60405180910390f35b6103a0610ba7565b005b3480156103ae57600080fd5b506103c960048036038101906103c491906135ac565b610d2e565b005b3480156103d757600080fd5b506103f260048036038101906103ed9190613542565b610d8e565b6040516103ff9190613591565b60405180910390f35b34801561041457600080fd5b5061041d610e33565b005b34801561042b57600080fd5b50610446600480360381019061044191906135ac565b610ec5565b005b34801561045457600080fd5b5061046f600480360381019061046a91906135ff565b610ee5565b60405161047c91906136ea565b60405180910390f35b34801561049157600080fd5b506104ac60048036038101906104a791906133d2565b610f8b565b6040516104b99190613591565b60405180910390f35b3480156104ce57600080fd5b506104e960048036038101906104e491906135ff565b610ffc565b005b3480156104f757600080fd5b5061050061121d565b60405161050d9190613591565b60405180910390f35b34801561052257600080fd5b5061053d600480360381019061053891906133d2565b611223565b60405161054a91906134fb565b60405180910390f35b34801561055f57600080fd5b5061057a600480360381019061057591906135ff565b6112aa565b6040516105879190613591565b60405180910390f35b34801561059c57600080fd5b506105a5611362565b005b6105af611376565b005b3480156105bd57600080fd5b506105c66114fd565b6040516105d39190613591565b60405180910390f35b3480156105e857600080fd5b506105f1611508565b6040516105fe91906134fb565b60405180910390f35b34801561061357600080fd5b5061061c611532565b6040516106299190613498565b60405180910390f35b34801561063e57600080fd5b506106476115c4565b6040516106549190613591565b60405180910390f35b34801561066957600080fd5b50610684600480360381019061067f9190613738565b6115cf565b005b34801561069257600080fd5b506106ad60048036038101906106a891906135ff565b6115e5565b005b3480156106bb57600080fd5b506106c4611806565b6040516106d19190613591565b60405180910390f35b3480156106e657600080fd5b5061070160048036038101906106fc91906133d2565b61180c565b60405161070e9190613381565b60405180910390f35b34801561072357600080fd5b5061072c611836565b6040516107399190613591565b60405180910390f35b34801561074e57600080fd5b50610769600480360381019061076491906138ad565b61183b565b005b34801561077757600080fd5b50610792600480360381019061078d91906133d2565b61189d565b60405161079f9190613498565b60405180910390f35b3480156107b457600080fd5b506107bd611986565b6040516107ca9190613591565b60405180910390f35b3480156107df57600080fd5b506107fa60048036038101906107f591906133d2565b611991565b6040516108079190613381565b60405180910390f35b6108186119b1565b005b34801561082657600080fd5b50610841600480360381019061083c91906135ff565b611b38565b005b34801561084f57600080fd5b50610858611d0b565b6040516108659190613591565b60405180910390f35b34801561087a57600080fd5b5061089560048036038101906108909190613930565b611d11565b6040516108a29190613381565b60405180910390f35b3480156108b757600080fd5b506108c0611da5565b6040516108cd9190613381565b60405180910390f35b3480156108e257600080fd5b506108fd60048036038101906108f891906133d2565b611db8565b60405161090a9190613381565b60405180910390f35b34801561091f57600080fd5b50610928611dd8565b005b34801561093657600080fd5b50610951600480360381019061094c91906135ff565b611dfd565b005b600061095e82611e81565b9050919050565b60146020528060005260406000206000915054906101000a900460ff1681565b6060600080546109949061399f565b80601f01602080910402602001604051908101604052809291908181526020018280546109c09061399f565b8015610a0d5780601f106109e257610100808354040283529160200191610a0d565b820191906000526020600020905b8154815290600101906020018083116109f057829003601f168201915b5050505050905090565b6000610a2282611efb565b6004600083815260200190815260200160002060009054906101000a900473ffffffffffffffffffffffffffffffffffffffff169050919050565b6000610a6882611223565b90508073ffffffffffffffffffffffffffffffffffffffff168373ffffffffffffffffffffffffffffffffffffffff161415610ad9576040517f08c379a0000000000000000000000000000000000000000000000000000000008152600401610ad090613a43565b60405180910390fd5b8073ffffffffffffffffffffffffffffffffffffffff16610af8611f46565b73ffffffffffffffffffffffffffffffffffffffff161480610b275750610b2681610b21611f46565b611d11565b5b610b66576040517f08c379a0000000000000000000000000000000000000000000000000000000008152600401610b5d90613ad5565b60405180910390fd5b610b708383611f4e565b505050565b610b7d612007565b6001601360006101000a81548160ff021916908315150217905550565b6000600980549050905090565b600060125411610bec576040517f08c379a0000000000000000000000000000000000000000000000000000000008152600401610be390613b41565b60405180910390fd5b601360009054906101000a900460ff16610c3b576040517f08c379a0000000000000000000000000000000000000000000000000000000008152600401610c3290613bad565b60405180910390fd5b660aa87bee538000341015610c85576040517f08c379a0000000000000000000000000000000000000000000000000000000008152600401610c7c90613c19565b60405180910390fd5b6000610c90336112aa565b14610cd0576040517f08c379a0000000000000000000000000000000000000000000000000000000008152600401610cc790613c85565b60405180910390fd5b601260008154610cdf90613cd4565b91905081905550610cf233600e54612085565b610d16600e546040518060600160405280603381526020016149df603391396120a3565b600e60008154610d2590613cfe565b91905081905550565b610d3f610d39611f46565b82612117565b610d7e576040517f08c379a0000000000000000000000000000000000000000000000000000000008152600401610d7590613db9565b60405180910390fd5b610d898383836121ac565b505050565b6000610d99836112aa565b8210610dda576040517f08c379a0000000000000000000000000000000000000000000000000000000008152600401610dd190613e4b565b60405180910390fd5b600760008473ffffffffffffffffffffffffffffffffffffffff1673ffffffffffffffffffffffffffffffffffffffff168152602001908152602001600020600083815260200190815260200160002054905092915050565b610e3b612007565b60004711610e75576040517f4602002100000000000000000000000000000000000000000000000000000000815260040160405180910390fd5b610e7d611508565b73ffffffffffffffffffffffffffffffffffffffff166108fc479081150290604051600060405180830381858888f19350505050158015610ec2573d6000803e3d6000fd5b50565b610ee08383836040518060200160405280600081525061183b565b505050565b60606000610ef2836112aa565b905060008167ffffffffffffffff811115610f1057610f0f613782565b5b604051908082528060200260200182016040528015610f3e5781602001602082028036833780820191505090505b50905060005b82811015610f8057610f568582610d8e565b828281518110610f6957610f68613e6b565b5b602002602001018181525050806001019050610f44565b508092505050919050565b6000610f95610b9a565b8210610fd6576040517f08c379a0000000000000000000000000000000000000000000000000000000008152600401610fcd90613f0c565b60405180910390fd5b60098281548110610fea57610fe9613e6b565b5b90600052602060002001549050919050565b611004612007565b600061100f826112aa565b1161104f576040517f08c379a000000000000000000000000000000000000000000000000000000000815260040161104690613f78565b60405180910390fd5b600061105c826000610d8e565b9050611067816124a6565b6110a6576040517f08c379a000000000000000000000000000000000000000000000000000000000815260040161109d90613fe4565b60405180910390fd5b6016600082815260200190815260200160002060009054906101000a900460ff1615611107576040517f08c379a00000000000000000000000000000000000000000000000000000000081526004016110fe90614050565b60405180910390fd5b8173ffffffffffffffffffffffffffffffffffffffff1661112782611223565b73ffffffffffffffffffffffffffffffffffffffff161461117d576040517f08c379a0000000000000000000000000000000000000000000000000000000008152600401611174906140bc565b60405180910390fd5b60016016600083815260200190815260200160002060006101000a81548160ff0219169083151502179055506015600082815260200190815260200160002060009054906101000a900460ff16156111f6576111f1816040518060600160405280603381526020016149ac603391396124e7565b611219565b61121881604051806060016040528060338152602001614a12603391396124e7565b5b5050565b60115481565b60008061122f8361255b565b9050600073ffffffffffffffffffffffffffffffffffffffff168173ffffffffffffffffffffffffffffffffffffffff1614156112a1576040517f08c379a000000000000000000000000000000000000000000000000000000000815260040161129890614128565b60405180910390fd5b80915050919050565b60008073ffffffffffffffffffffffffffffffffffffffff168273ffffffffffffffffffffffffffffffffffffffff16141561131b576040517f08c379a0000000000000000000000000000000000000000000000000000000008152600401611312906141ba565b60405180910390fd5b600360008373ffffffffffffffffffffffffffffffffffffffff1673ffffffffffffffffffffffffffffffffffffffff168152602001908152602001600020549050919050565b61136a612007565b6113746000612598565b565b6000601154116113bb576040517f08c379a00000000000000000000000000000000000000000000000000000000081526004016113b290613b41565b60405180910390fd5b601360009054906101000a900460ff1661140a576040517f08c379a000000000000000000000000000000000000000000000000000000000815260040161140190613bad565b60405180910390fd5b66071afd498d0000341015611454576040517f08c379a000000000000000000000000000000000000000000000000000000000815260040161144b90613c19565b60405180910390fd5b600061145f336112aa565b1461149f576040517f08c379a000000000000000000000000000000000000000000000000000000000815260040161149690613c85565b60405180910390fd5b6011600081546114ae90613cd4565b919050819055506114c133600d54612085565b6114e5600d546040518060600160405280603381526020016149df603391396120a3565b600d600081546114f490613cfe565b91905081905550565b66071afd498d000081565b6000600b60009054906101000a900473ffffffffffffffffffffffffffffffffffffffff16905090565b6060600180546115419061399f565b80601f016020809104026020016040519081016040528092919081815260200182805461156d9061399f565b80156115ba5780601f1061158f576101008083540402835291602001916115ba565b820191906000526020600020905b81548152906001019060200180831161159d57829003601f168201915b5050505050905090565b660aa87bee53800081565b6115e16115da611f46565b838361265e565b5050565b6115ed612007565b60006115f8826112aa565b11611638576040517f08c379a000000000000000000000000000000000000000000000000000000000815260040161162f90613f78565b60405180910390fd5b6000611645826000610d8e565b9050611650816124a6565b61168f576040517f08c379a000000000000000000000000000000000000000000000000000000000815260040161168690613fe4565b60405180910390fd5b6015600082815260200190815260200160002060009054906101000a900460ff16156116f0576040517f08c379a00000000000000000000000000000000000000000000000000000000081526004016116e790614226565b60405180910390fd5b8173ffffffffffffffffffffffffffffffffffffffff1661171082611223565b73ffffffffffffffffffffffffffffffffffffffff1614611766576040517f08c379a000000000000000000000000000000000000000000000000000000000815260040161175d906140bc565b60405180910390fd5b60016015600083815260200190815260200160002060006101000a81548160ff0219169083151502179055506016600082815260200190815260200160002060009054906101000a900460ff16156117df576117da816040518060600160405280603381526020016149ac603391396124e7565b611802565b61180181604051806060016040528060338152602001614979603391396124e7565b5b5050565b60105481565b60006014600083815260200190815260200160002060009054906101000a900460ff169050919050565b600a81565b61184c611846611f46565b83612117565b61188b576040517f08c379a000000000000000000000000000000000000000000000000000000000815260040161188290613db9565b60405180910390fd5b611897848484846127cb565b50505050565b60606118a8826124a6565b6118e7576040517f08c379a00000000000000000000000000000000000000000000000000000000081526004016118de90613fe4565b60405180910390fd5b6014600083815260200190815260200160002060009054906101000a900460ff161561194957600f601860008481526020019081526020016000206040516020016119339291906142e5565b6040516020818303038152906040529050611981565b600f6017600084815260200190815260200160002060405160200161196f9291906142e5565b60405160208183030381529060405290505b919050565b66038d7ea4c6800081565b60156020528060005260406000206000915054906101000a900460ff1681565b6000601054116119f6576040517f08c379a00000000000000000000000000000000000000000000000000000000081526004016119ed90613b41565b60405180910390fd5b601360009054906101000a900460ff16611a45576040517f08c379a0000000000000000000000000000000000000000000000000000000008152600401611a3c90613bad565b60405180910390fd5b66038d7ea4c68000341015611a8f576040517f08c379a0000000000000000000000000000000000000000000000000000000008152600401611a8690613c19565b60405180910390fd5b6000611a9a336112aa565b14611ada576040517f08c379a0000000000000000000000000000000000000000000000000000000008152600401611ad190613c85565b60405180910390fd5b601060008154611ae990613cd4565b91905081905550611afc33600c54612085565b611b20600c546040518060600160405280603381526020016149df603391396120a3565b600c60008154611b2f90613cfe565b91905081905550565b611b40612007565b6000611b4b826112aa565b11611b8b576040517f08c379a0000000000000000000000000000000000000000000000000000000008152600401611b8290613f78565b60405180910390fd5b6000611b98826000610d8e565b9050611ba3816124a6565b611be2576040517f08c379a0000000000000000000000000000000000000000000000000000000008152600401611bd990613fe4565b60405180910390fd5b6014600082815260200190815260200160002060009054906101000a900460ff1615611c43576040517f08c379a0000000000000000000000000000000000000000000000000000000008152600401611c3a90614355565b60405180910390fd5b8173ffffffffffffffffffffffffffffffffffffffff16611c6382611223565b73ffffffffffffffffffffffffffffffffffffffff1614611cb9576040517f08c379a0000000000000000000000000000000000000000000000000000000008152600401611cb0906140bc565b60405180910390fd5b60016014600083815260200190815260200160002060006101000a81548160ff021916908315150217905550611d0781604051806060016040528060338152602001614946603391396124e7565b5050565b60125481565b6000600560008473ffffffffffffffffffffffffffffffffffffffff1673ffffffffffffffffffffffffffffffffffffffff16815260200190815260200160002060008373ffffffffffffffffffffffffffffffffffffffff1673ffffffffffffffffffffffffffffffffffffffff16815260200190815260200160002060009054906101000a900460ff16905092915050565b601360009054906101000a900460ff1681565b60166020528060005260406000206000915054906101000a900460ff1681565b611de0612007565b6000601360006101000a81548160ff021916908315150217905550565b611e05612007565b600073ffffffffffffffffffffffffffffffffffffffff168173ffffffffffffffffffffffffffffffffffffffff161415611e75576040517f08c379a0000000000000000000000000000000000000000000000000000000008152600401611e6c906143e7565b60405180910390fd5b611e7e81612598565b50565b60007f780e9d63000000000000000000000000000000000000000000000000000000007bffffffffffffffffffffffffffffffffffffffffffffffffffffffff1916827bffffffffffffffffffffffffffffffffffffffffffffffffffffffff19161480611ef45750611ef382612827565b5b9050919050565b611f04816124a6565b611f43576040517f08c379a0000000000000000000000000000000000000000000000000000000008152600401611f3a90614128565b60405180910390fd5b50565b600033905090565b816004600083815260200190815260200160002060006101000a81548173ffffffffffffffffffffffffffffffffffffffff021916908373ffffffffffffffffffffffffffffffffffffffff160217905550808273ffffffffffffffffffffffffffffffffffffffff16611fc183611223565b73ffffffffffffffffffffffffffffffffffffffff167f8c5be1e5ebec7d5bd14f71427d1e84f3dd0314c0f7b2291e5b200ac8c7c3b92560405160405180910390a45050565b61200f611f46565b73ffffffffffffffffffffffffffffffffffffffff1661202d611508565b73ffffffffffffffffffffffffffffffffffffffff1614612083576040517f08c379a000000000000000000000000000000000000000000000000000000000815260040161207a90614453565b60405180910390fd5b565b61209f828260405180602001604052806000815250612909565b5050565b6120ac826124a6565b6120eb576040517f08c379a00000000000000000000000000000000000000000000000000000000081526004016120e290613fe4565b60405180910390fd5b8060176000848152602001908152602001600020908051906020019061211292919061322a565b505050565b60008061212383611223565b90508073ffffffffffffffffffffffffffffffffffffffff168473ffffffffffffffffffffffffffffffffffffffff16148061216557506121648185611d11565b5b806121a357508373ffffffffffffffffffffffffffffffffffffffff1661218b84610a17565b73ffffffffffffffffffffffffffffffffffffffff16145b91505092915050565b8273ffffffffffffffffffffffffffffffffffffffff166121cc82611223565b73ffffffffffffffffffffffffffffffffffffffff1614612222576040517f08c379a0000000000000000000000000000000000000000000000000000000008152600401612219906144e5565b60405180910390fd5b600073ffffffffffffffffffffffffffffffffffffffff168273ffffffffffffffffffffffffffffffffffffffff161415612292576040517f08c379a000000000000000000000000000000000000000000000000000000000815260040161228990614577565b60405180910390fd5b61229f8383836001612964565b8273ffffffffffffffffffffffffffffffffffffffff166122bf82611223565b73ffffffffffffffffffffffffffffffffffffffff1614612315576040517f08c379a000000000000000000000000000000000000000000000000000000000815260040161230c906144e5565b60405180910390fd5b6004600082815260200190815260200160002060006101000a81549073ffffffffffffffffffffffffffffffffffffffff02191690556001600360008573ffffffffffffffffffffffffffffffffffffffff1673ffffffffffffffffffffffffffffffffffffffff168152602001908152602001600020600082825403925050819055506001600360008473ffffffffffffffffffffffffffffffffffffffff1673ffffffffffffffffffffffffffffffffffffffff16815260200190815260200160002060008282540192505081905550816002600083815260200190815260200160002060006101000a81548173ffffffffffffffffffffffffffffffffffffffff021916908373ffffffffffffffffffffffffffffffffffffffff160217905550808273ffffffffffffffffffffffffffffffffffffffff168473ffffffffffffffffffffffffffffffffffffffff167fddf252ad1be2c89b69c2b068fc378daa952ba7f163c4a11628f55a4df523b3ef60405160405180910390a46124a18383836001612976565b505050565b60008073ffffffffffffffffffffffffffffffffffffffff166124c88361255b565b73ffffffffffffffffffffffffffffffffffffffff1614159050919050565b6124f0826124a6565b61252f576040517f08c379a000000000000000000000000000000000000000000000000000000000815260040161252690613fe4565b60405180910390fd5b8060186000848152602001908152602001600020908051906020019061255692919061322a565b505050565b60006002600083815260200190815260200160002060009054906101000a900473ffffffffffffffffffffffffffffffffffffffff169050919050565b6000600b60009054906101000a900473ffffffffffffffffffffffffffffffffffffffff16905081600b60006101000a81548173ffffffffffffffffffffffffffffffffffffffff021916908373ffffffffffffffffffffffffffffffffffffffff1602179055508173ffffffffffffffffffffffffffffffffffffffff168173ffffffffffffffffffffffffffffffffffffffff167f8be0079c531659141344cd1fd0a4f28419497f9722a3daafe3b4186f6b6457e060405160405180910390a35050565b8173ffffffffffffffffffffffffffffffffffffffff168373ffffffffffffffffffffffffffffffffffffffff1614156126cd576040517f08c379a00000000000000000000000000000000000000000000000000000000081526004016126c4906145e3565b60405180910390fd5b80600560008573ffffffffffffffffffffffffffffffffffffffff1673ffffffffffffffffffffffffffffffffffffffff16815260200190815260200160002060008473ffffffffffffffffffffffffffffffffffffffff1673ffffffffffffffffffffffffffffffffffffffff16815260200190815260200160002060006101000a81548160ff0219169083151502179055508173ffffffffffffffffffffffffffffffffffffffff168373ffffffffffffffffffffffffffffffffffffffff167f17307eab39ab6107e8899845ad3d59bd9653f200f220920489ca2b5937696c31836040516127be9190613381565b60405180910390a3505050565b6127d68484846121ac565b6127e28484848461297c565b612821576040517f08c379a000000000000000000000000000000000000000000000000000000000815260040161281890614675565b60405180910390fd5b50505050565b60007f80ac58cd000000000000000000000000000000000000000000000000000000007bffffffffffffffffffffffffffffffffffffffffffffffffffffffff1916827bffffffffffffffffffffffffffffffffffffffffffffffffffffffff191614806128f257507f5b5e139f000000000000000000000000000000000000000000000000000000007bffffffffffffffffffffffffffffffffffffffffffffffffffffffff1916827bffffffffffffffffffffffffffffffffffffffffffffffffffffffff1916145b80612902575061290182612b13565b5b9050919050565b6129138383612b7d565b612920600084848461297c565b61295f576040517f08c379a000000000000000000000000000000000000000000000000000000000815260040161295690614675565b60405180910390fd5b505050565b61297084848484612d9b565b50505050565b50505050565b600061299d8473ffffffffffffffffffffffffffffffffffffffff16612efb565b15612b06578373ffffffffffffffffffffffffffffffffffffffff1663150b7a026129c6611f46565b8786866040518563ffffffff1660e01b81526004016129e894939291906146ea565b602060405180830381600087803b158015612a0257600080fd5b505af1925050508015612a3357506040513d601f19601f82011682018060405250810190612a30919061474b565b60015b612ab6573d8060008114612a63576040519150601f19603f3d011682016040523d82523d6000602084013e612a68565b606091505b50600081511415612aae576040517f08c379a0000000000000000000000000000000000000000000000000000000008152600401612aa590614675565b60405180910390fd5b805181602001fd5b63150b7a0260e01b7bffffffffffffffffffffffffffffffffffffffffffffffffffffffff1916817bffffffffffffffffffffffffffffffffffffffffffffffffffffffff191614915050612b0b565b600190505b949350505050565b60007f01ffc9a7000000000000000000000000000000000000000000000000000000007bffffffffffffffffffffffffffffffffffffffffffffffffffffffff1916827bffffffffffffffffffffffffffffffffffffffffffffffffffffffff1916149050919050565b600073ffffffffffffffffffffffffffffffffffffffff168273ffffffffffffffffffffffffffffffffffffffff161415612bed576040517f08c379a0000000000000000000000000000000000000000000000000000000008152600401612be4906147c4565b60405180910390fd5b612bf6816124a6565b15612c36576040517f08c379a0000000000000000000000000000000000000000000000000000000008152600401612c2d90614830565b60405180910390fd5b612c44600083836001612964565b612c4d816124a6565b15612c8d576040517f08c379a0000000000000000000000000000000000000000000000000000000008152600401612c8490614830565b60405180910390fd5b6001600360008473ffffffffffffffffffffffffffffffffffffffff1673ffffffffffffffffffffffffffffffffffffffff16815260200190815260200160002060008282540192505081905550816002600083815260200190815260200160002060006101000a81548173ffffffffffffffffffffffffffffffffffffffff021916908373ffffffffffffffffffffffffffffffffffffffff160217905550808273ffffffffffffffffffffffffffffffffffffffff16600073ffffffffffffffffffffffffffffffffffffffff167fddf252ad1be2c89b69c2b068fc378daa952ba7f163c4a11628f55a4df523b3ef60405160405180910390a4612d97600083836001612976565b5050565b612da784848484612f1e565b6001811115612deb576040517f08c379a0000000000000000000000000000000000000000000000000000000008152600401612de2906148c2565b60405180910390fd5b6000829050600073ffffffffffffffffffffffffffffffffffffffff168573ffffffffffffffffffffffffffffffffffffffff161415612e3357612e2e81612f24565b612e72565b8373ffffffffffffffffffffffffffffffffffffffff168573ffffffffffffffffffffffffffffffffffffffff1614612e7157612e708582612f6d565b5b5b600073ffffffffffffffffffffffffffffffffffffffff168473ffffffffffffffffffffffffffffffffffffffff161415612eb557612eb0816130da565b612ef4565b8473ffffffffffffffffffffffffffffffffffffffff168473ffffffffffffffffffffffffffffffffffffffff1614612ef357612ef284826131ab565b5b5b5050505050565b6000808273ffffffffffffffffffffffffffffffffffffffff163b119050919050565b50505050565b600980549050600a600083815260200190815260200160002081905550600981908060018154018082558091505060019003906000526020600020016000909190919091505550565b60006001612f7a846112aa565b612f8491906148e2565b9050600060086000848152602001908152602001600020549050818114613069576000600760008673ffffffffffffffffffffffffffffffffffffffff1673ffffffffffffffffffffffffffffffffffffffff168152602001908152602001600020600084815260200190815260200160002054905080600760008773ffffffffffffffffffffffffffffffffffffffff1673ffffffffffffffffffffffffffffffffffffffff168152602001908152602001600020600084815260200190815260200160002081905550816008600083815260200190815260200160002081905550505b6008600084815260200190815260200160002060009055600760008573ffffffffffffffffffffffffffffffffffffffff1673ffffffffffffffffffffffffffffffffffffffff16815260200190815260200160002060008381526020019081526020016000206000905550505050565b600060016009805490506130ee91906148e2565b90506000600a600084815260200190815260200160002054905060006009838154811061311e5761311d613e6b565b5b9060005260206000200154905080600983815481106131405761313f613e6b565b5b906000526020600020018190555081600a600083815260200190815260200160002081905550600a600085815260200190815260200160002060009055600980548061318f5761318e614916565b5b6001900381819060005260206000200160009055905550505050565b60006131b6836112aa565b905081600760008573ffffffffffffffffffffffffffffffffffffffff1673ffffffffffffffffffffffffffffffffffffffff168152602001908152602001600020600083815260200190815260200160002081905550806008600084815260200190815260200160002081905550505050565b8280546132369061399f565b90600052602060002090601f016020900481019282613258576000855561329f565b82601f1061327157805160ff191683800117855561329f565b8280016001018555821561329f579182015b8281111561329e578251825591602001919060010190613283565b5b5090506132ac91906132b0565b5090565b5b808211156132c95760008160009055506001016132b1565b5090565b6000604051905090565b600080fd5b600080fd5b60007fffffffff0000000000000000000000000000000000000000000000000000000082169050919050565b613316816132e1565b811461332157600080fd5b50565b6000813590506133338161330d565b92915050565b60006020828403121561334f5761334e6132d7565b5b600061335d84828501613324565b91505092915050565b60008115159050919050565b61337b81613366565b82525050565b60006020820190506133966000830184613372565b92915050565b6000819050919050565b6133af8161339c565b81146133ba57600080fd5b50565b6000813590506133cc816133a6565b92915050565b6000602082840312156133e8576133e76132d7565b5b60006133f6848285016133bd565b91505092915050565b600081519050919050565b600082825260208201905092915050565b60005b8381101561343957808201518184015260208101905061341e565b83811115613448576000848401525b50505050565b6000601f19601f8301169050919050565b600061346a826133ff565b613474818561340a565b935061348481856020860161341b565b61348d8161344e565b840191505092915050565b600060208201905081810360008301526134b2818461345f565b905092915050565b600073ffffffffffffffffffffffffffffffffffffffff82169050919050565b60006134e5826134ba565b9050919050565b6134f5816134da565b82525050565b600060208201905061351060008301846134ec565b92915050565b61351f816134da565b811461352a57600080fd5b50565b60008135905061353c81613516565b92915050565b60008060408385031215613559576135586132d7565b5b60006135678582860161352d565b9250506020613578858286016133bd565b9150509250929050565b61358b8161339c565b82525050565b60006020820190506135a66000830184613582565b92915050565b6000806000606084860312156135c5576135c46132d7565b5b60006135d38682870161352d565b93505060206135e48682870161352d565b92505060406135f5868287016133bd565b9150509250925092565b600060208284031215613615576136146132d7565b5b60006136238482850161352d565b91505092915050565b600081519050919050565b600082825260208201905092915050565b6000819050602082019050919050565b6136618161339c565b82525050565b60006136738383613658565b60208301905092915050565b6000602082019050919050565b60006136978261362c565b6136a18185613637565b93506136ac83613648565b8060005b838110156136dd5781516136c48882613667565b97506136cf8361367f565b9250506001810190506136b0565b5085935050505092915050565b60006020820190508181036000830152613704818461368c565b905092915050565b61371581613366565b811461372057600080fd5b50565b6000813590506137328161370c565b92915050565b6000806040838503121561374f5761374e6132d7565b5b600061375d8582860161352d565b925050602061376e85828601613723565b9150509250929050565b600080fd5b600080fd5b7f4e487b7100000000000000000000000000000000000000000000000000000000600052604160045260246000fd5b6137ba8261344e565b810181811067ffffffffffffffff821117156137d9576137d8613782565b5b80604052505050565b60006137ec6132cd565b90506137f882826137b1565b919050565b600067ffffffffffffffff82111561381857613817613782565b5b6138218261344e565b9050602081019050919050565b82818337600083830152505050565b600061385061384b846137fd565b6137e2565b90508281526020810184848401111561386c5761386b61377d565b5b61387784828561382e565b509392505050565b600082601f83011261389457613893613778565b5b81356138a484826020860161383d565b91505092915050565b600080600080608085870312156138c7576138c66132d7565b5b60006138d58782880161352d565b94505060206138e68782880161352d565b93505060406138f7878288016133bd565b925050606085013567ffffffffffffffff811115613918576139176132dc565b5b6139248782880161387f565b91505092959194509250565b60008060408385031215613947576139466132d7565b5b60006139558582860161352d565b92505060206139668582860161352d565b9150509250929050565b7f4e487b7100000000000000000000000000000000000000000000000000000000600052602260045260246000fd5b600060028204905060018216806139b757607f821691505b602082108114156139cb576139ca613970565b5b50919050565b7f4552433732313a20617070726f76616c20746f2063757272656e74206f776e6560008201527f7200000000000000000000000000000000000000000000000000000000000000602082015250565b6000613a2d60218361340a565b9150613a38826139d1565b604082019050919050565b60006020820190508181036000830152613a5c81613a20565b9050919050565b7f4552433732313a20617070726f76652063616c6c6572206973206e6f7420746f60008201527f6b656e206f776e6572206f7220617070726f76656420666f7220616c6c000000602082015250565b6000613abf603d8361340a565b9150613aca82613a63565b604082019050919050565b60006020820190508181036000830152613aee81613ab2565b9050919050565b7f4e6f206d6f7265207469636b65747320617661696c61626c6500000000000000600082015250565b6000613b2b60198361340a565b9150613b3682613af5565b602082019050919050565b60006020820190508181036000830152613b5a81613b1e565b9050919050565b7f5469636b65747320617265206e6f74206f6e2073616c65210000000000000000600082015250565b6000613b9760188361340a565b9150613ba282613b61565b602082019050919050565b60006020820190508181036000830152613bc681613b8a565b9050919050565b7f4e6f7420656e6f756768204554482073656e7400000000000000000000000000600082015250565b6000613c0360138361340a565b9150613c0e82613bcd565b602082019050919050565b60006020820190508181036000830152613c3281613bf6565b9050919050565b7f4164647265737320616c7265616479206861732061207469636b657400000000600082015250565b6000613c6f601c8361340a565b9150613c7a82613c39565b602082019050919050565b60006020820190508181036000830152613c9e81613c62565b9050919050565b7f4e487b7100000000000000000000000000000000000000000000000000000000600052601160045260246000fd5b6000613cdf8261339c565b91506000821415613cf357613cf2613ca5565b5b600182039050919050565b6000613d098261339c565b91507fffffffffffffffffffffffffffffffffffffffffffffffffffffffffffffffff821415613d3c57613d3b613ca5565b5b600182019050919050565b7f4552433732313a2063616c6c6572206973206e6f7420746f6b656e206f776e6560008201527f72206f7220617070726f76656400000000000000000000000000000000000000602082015250565b6000613da3602d8361340a565b9150613dae82613d47565b604082019050919050565b60006020820190508181036000830152613dd281613d96565b9050919050565b7f455243373231456e756d657261626c653a206f776e657220696e646578206f7560008201527f74206f6620626f756e6473000000000000000000000000000000000000000000602082015250565b6000613e35602b8361340a565b9150613e4082613dd9565b604082019050919050565b60006020820190508181036000830152613e6481613e28565b9050919050565b7f4e487b7100000000000000000000000000000000000000000000000000000000600052603260045260246000fd5b7f455243373231456e756d657261626c653a20676c6f62616c20696e646578206f60008201527f7574206f6620626f756e64730000000000000000000000000000000000000000602082015250565b6000613ef6602c8361340a565b9150613f0182613e9a565b604082019050919050565b60006020820190508181036000830152613f2581613ee9565b9050919050565b7f4164647265737320646f65736e2774206861766520746f6b656e000000000000600082015250565b6000613f62601a8361340a565b9150613f6d82613f2c565b602082019050919050565b60006020820190508181036000830152613f9181613f55565b9050919050565b7f546f6b656e204944206e6f7420666f756e640000000000000000000000000000600082015250565b6000613fce60128361340a565b9150613fd982613f98565b602082019050919050565b60006020820190508181036000830152613ffd81613fc1565b9050919050565b7f5469636b657420616c726561647920636865636b656420696e20537461676532600082015250565b600061403a60208361340a565b915061404582614004565b602082019050919050565b600060208201905081810360008301526140698161402d565b9050919050565b7f43616c6c6572206d75737420626520746865207469636b6574206f776e657200600082015250565b60006140a6601f8361340a565b91506140b182614070565b602082019050919050565b600060208201905081810360008301526140d581614099565b9050919050565b7f4552433732313a20696e76616c696420746f6b656e2049440000000000000000600082015250565b600061411260188361340a565b915061411d826140dc565b602082019050919050565b6000602082019050818103600083015261414181614105565b9050919050565b7f4552433732313a2061646472657373207a65726f206973206e6f74206120766160008201527f6c6964206f776e65720000000000000000000000000000000000000000000000602082015250565b60006141a460298361340a565b91506141af82614148565b604082019050919050565b600060208201905081810360008301526141d381614197565b9050919050565b7f5469636b657420616c726561647920636865636b656420696e20537461676531600082015250565b600061421060208361340a565b915061421b826141da565b602082019050919050565b6000602082019050818103600083015261423f81614203565b9050919050565b600081905092915050565b60008190508160005260206000209050919050565b600081546142738161399f565b61427d8186614246565b9450600182166000811461429857600181146142a9576142dc565b60ff198316865281860193506142dc565b6142b285614251565b60005b838110156142d4578154818901526001820191506020810190506142b5565b838801955050505b50505092915050565b60006142f18285614266565b91506142fd8284614266565b91508190509392505050565b7f5469636b657420616c726561647920636865636b656420696e00000000000000600082015250565b600061433f60198361340a565b915061434a82614309565b602082019050919050565b6000602082019050818103600083015261436e81614332565b9050919050565b7f4f776e61626c653a206e6577206f776e657220697320746865207a65726f206160008201527f6464726573730000000000000000000000000000000000000000000000000000602082015250565b60006143d160268361340a565b91506143dc82614375565b604082019050919050565b60006020820190508181036000830152614400816143c4565b9050919050565b7f4f776e61626c653a2063616c6c6572206973206e6f7420746865206f776e6572600082015250565b600061443d60208361340a565b915061444882614407565b602082019050919050565b6000602082019050818103600083015261446c81614430565b9050919050565b7f4552433732313a207472616e736665722066726f6d20696e636f72726563742060008201527f6f776e6572000000000000000000000000000000000000000000000000000000602082015250565b60006144cf60258361340a565b91506144da82614473565b604082019050919050565b600060208201905081810360008301526144fe816144c2565b9050919050565b7f4552433732313a207472616e7366657220746f20746865207a65726f2061646460008201527f7265737300000000000000000000000000000000000000000000000000000000602082015250565b600061456160248361340a565b915061456c82614505565b604082019050919050565b6000602082019050818103600083015261459081614554565b9050919050565b7f4552433732313a20617070726f766520746f2063616c6c657200000000000000600082015250565b60006145cd60198361340a565b91506145d882614597565b602082019050919050565b600060208201905081810360008301526145fc816145c0565b9050919050565b7f4552433732313a207472616e7366657220746f206e6f6e20455243373231526560008201527f63656976657220696d706c656d656e7465720000000000000000000000000000602082015250565b600061465f60328361340a565b915061466a82614603565b604082019050919050565b6000602082019050818103600083015261468e81614652565b9050919050565b600081519050919050565b600082825260208201905092915050565b60006146bc82614695565b6146c681856146a0565b93506146d681856020860161341b565b6146df8161344e565b840191505092915050565b60006080820190506146ff60008301876134ec565b61470c60208301866134ec565b6147196040830185613582565b818103606083015261472b81846146b1565b905095945050505050565b6000815190506147458161330d565b92915050565b600060208284031215614761576147606132d7565b5b600061476f84828501614736565b91505092915050565b7f4552433732313a206d696e7420746f20746865207a65726f2061646472657373600082015250565b60006147ae60208361340a565b91506147b982614778565b602082019050919050565b600060208201905081810360008301526147dd816147a1565b9050919050565b7f4552433732313a20746f6b656e20616c7265616479206d696e74656400000000600082015250565b600061481a601c8361340a565b9150614825826147e4565b602082019050919050565b600060208201905081810360008301526148498161480d565b9050919050565b7f455243373231456e756d657261626c653a20636f6e736563757469766520747260008201527f616e7366657273206e6f7420737570706f727465640000000000000000000000602082015250565b60006148ac60358361340a565b91506148b782614850565b604082019050919050565b600060208201905081810360008301526148db8161489f565b9050919050565b60006148ed8261339c565b91506148f88361339c565b92508282101561490b5761490a613ca5565b5b828203905092915050565b7f4e487b7100000000000000000000000000000000000000000000000000000000600052603160045260246000fdfe516d514b6b6b34656f4e6b3552426972556e6754687876586f6f45514a425a67464850654a4c774a75476971595a2f7b69647d516d5547365a6a56417067757641334135363859374d7154506a55474a475558423369543675584537645a3665692f7b69647d516d554547546f354b4e44684b725a50444b533162435973345a4e6e483343686f6467396570537a505a52397a532f7b69647d516d5761523471643969393942515965445658743832366e7165576b4d433166523332627a6e4b68786a676a31522f7b69647d516d574579685837354d5a5552576d4438346546656274773573576e373579346a6b754d594355685958727058572f7b69647da2646970667358221220c785be095f767d1e7cd2c0ecc51542c6c794a44dce3703407c181098c8185c0464736f6c6343000809003368747470733a2f2f676174657761792e70696e6174612e636c6f75642f697066732f",
  "linkReferences": {},
  "deployedLinkReferences": {}
}