{
  "_format": "hh-sol-artifact-1",
  "contractName": "NFTTicket721",
  "sourceName": "contracts/NFTTicket721.sol",
  "abi": [
    {
      "inputs": [],
      "stateMutability": "nonpayable",
      "type": "constructor"
    },
    {
      "anonymous": false,
      "inputs": [
        {
          "indexed": true,
          "internalType": "address",
          "name": "owner",
          "type": "address"
        },
        {
          "indexed": true,
          "internalType": "address",
          "name": "approved",
          "type": "address"
        },
        {
          "indexed": true,
          "internalType": "uint256",
          "name": "tokenId",
          "type": "uint256"
        }
      ],
      "name": "Approval",
      "type": "event"
    },
    {
      "anonymous": false,
      "inputs": [
        {
          "indexed": true,
          "internalType": "address",
          "name": "owner",
          "type": "address"
        },
        {
          "indexed": true,
          "internalType": "address",
          "name": "operator",
          "type": "address"
        },
        {
          "indexed": false,
          "internalType": "bool",
          "name": "approved",
          "type": "bool"
        }
      ],
      "name": "ApprovalForAll",
      "type": "event"
    },
    {
      "anonymous": false,
      "inputs": [
        {
          "indexed": true,
          "internalType": "address",
          "name": "previousOwner",
          "type": "address"
        },
        {
          "indexed": true,
          "internalType": "address",
          "name": "newOwner",
          "type": "address"
        }
      ],
      "name": "OwnershipTransferred",
      "type": "event"
    },
    {
      "anonymous": false,
      "inputs": [
        {
          "indexed": true,
          "internalType": "address",
          "name": "from",
          "type": "address"
        },
        {
          "indexed": true,
          "internalType": "address",
          "name": "to",
          "type": "address"
        },
        {
          "indexed": true,
          "internalType": "uint256",
          "name": "tokenId",
          "type": "uint256"
        }
      ],
      "name": "Transfer",
      "type": "event"
    },
    {
      "inputs": [],
      "name": "TOTAL_TICKETS",
      "outputs": [
        {
          "internalType": "uint256",
          "name": "",
          "type": "uint256"
        }
      ],
      "stateMutability": "view",
      "type": "function"
    },
    {
      "inputs": [
        {
          "internalType": "address",
          "name": "to",
          "type": "address"
        },
        {
          "internalType": "uint256",
          "name": "tokenId",
          "type": "uint256"
        }
      ],
      "name": "approve",
      "outputs": [],
      "stateMutability": "nonpayable",
      "type": "function"
    },
    {
      "inputs": [],
      "name": "availableTicketsA",
      "outputs": [
        {
          "internalType": "uint256",
          "name": "",
          "type": "uint256"
        }
      ],
      "stateMutability": "view",
      "type": "function"
    },
    {
      "inputs": [],
      "name": "availableTicketsB",
      "outputs": [
        {
          "internalType": "uint256",
          "name": "",
          "type": "uint256"
        }
      ],
      "stateMutability": "view",
      "type": "function"
    },
    {
      "inputs": [],
      "name": "availableTicketsC",
      "outputs": [
        {
          "internalType": "uint256",
          "name": "",
          "type": "uint256"
        }
      ],
      "stateMutability": "view",
      "type": "function"
    },
    {
      "inputs": [
        {
          "internalType": "address",
          "name": "owner",
          "type": "address"
        }
      ],
      "name": "balanceOf",
      "outputs": [
        {
          "internalType": "uint256",
          "name": "",
          "type": "uint256"
        }
      ],
      "stateMutability": "view",
      "type": "function"
    },
    {
      "inputs": [
        {
          "internalType": "address",
          "name": "tokenaddress",
          "type": "address"
        }
      ],
      "name": "checkIn",
      "outputs": [],
      "stateMutability": "nonpayable",
      "type": "function"
    },
    {
      "inputs": [
        {
          "internalType": "address",
          "name": "tokenaddress",
          "type": "address"
        }
      ],
      "name": "checkInStage1",
      "outputs": [],
      "stateMutability": "nonpayable",
      "type": "function"
    },
    {
      "inputs": [
        {
          "internalType": "address",
          "name": "tokenaddress",
          "type": "address"
        }
      ],
      "name": "checkInStage2",
      "outputs": [],
      "stateMutability": "nonpayable",
      "type": "function"
    },
    {
      "inputs": [],
      "name": "closeSale",
      "outputs": [],
      "stateMutability": "nonpayable",
      "type": "function"
    },
    {
      "inputs": [
        {
          "internalType": "uint256",
          "name": "tokenId",
          "type": "uint256"
        }
      ],
      "name": "getApproved",
      "outputs": [
        {
          "internalType": "address",
          "name": "",
          "type": "address"
        }
      ],
      "stateMutability": "view",
      "type": "function"
    },
    {
      "inputs": [
        {
          "internalType": "address",
          "name": "owner",
          "type": "address"
        },
        {
          "internalType": "address",
          "name": "operator",
          "type": "address"
        }
      ],
      "name": "isApprovedForAll",
      "outputs": [
        {
          "internalType": "bool",
          "name": "",
          "type": "bool"
        }
      ],
      "stateMutability": "view",
      "type": "function"
    },
    {
      "inputs": [
        {
          "internalType": "uint256",
          "name": "tokenId",
          "type": "uint256"
        }
      ],
      "name": "isCheckedIn",
      "outputs": [
        {
          "internalType": "bool",
          "name": "",
          "type": "bool"
        }
      ],
      "stateMutability": "view",
      "type": "function"
    },
    {
      "inputs": [],
      "name": "mintA",
      "outputs": [],
      "stateMutability": "payable",
      "type": "function"
    },
    {
      "inputs": [],
      "name": "mintB",
      "outputs": [],
      "stateMutability": "payable",
      "type": "function"
    },
    {
      "inputs": [],
      "name": "mintC",
      "outputs": [],
      "stateMutability": "payable",
      "type": "function"
    },
    {
      "inputs": [],
      "name": "mintPriceA",
      "outputs": [
        {
          "internalType": "uint256",
          "name": "",
          "type": "uint256"
        }
      ],
      "stateMutability": "view",
      "type": "function"
    },
    {
      "inputs": [],
      "name": "mintPriceB",
      "outputs": [
        {
          "internalType": "uint256",
          "name": "",
          "type": "uint256"
        }
      ],
      "stateMutability": "view",
      "type": "function"
    },
    {
      "inputs": [],
      "name": "mintPriceC",
      "outputs": [
        {
          "internalType": "uint256",
          "name": "",
          "type": "uint256"
        }
      ],
      "stateMutability": "view",
      "type": "function"
    },
    {
      "inputs": [],
      "name": "name",
      "outputs": [
        {
          "internalType": "string",
          "name": "",
          "type": "string"
        }
      ],
      "stateMutability": "view",
      "type": "function"
    },
    {
      "inputs": [],
      "name": "openSale",
      "outputs": [],
      "stateMutability": "nonpayable",
      "type": "function"
    },
    {
      "inputs": [],
      "name": "owner",
      "outputs": [
        {
          "internalType": "address",
          "name": "",
          "type": "address"
        }
      ],
      "stateMutability": "view",
      "type": "function"
    },
    {
      "inputs": [
        {
          "internalType": "uint256",
          "name": "tokenId",
          "type": "uint256"
        }
      ],
      "name": "ownerOf",
      "outputs": [
        {
          "internalType": "address",
          "name": "",
          "type": "address"
        }
      ],
      "stateMutability": "view",
      "type": "function"
    },
    {
      "inputs": [],
      "name": "renounceOwnership",
      "outputs": [],
      "stateMutability": "nonpayable",
      "type": "function"
    },
    {
      "inputs": [
        {
          "internalType": "address",
          "name": "from",
          "type": "address"
        },
        {
          "internalType": "address",
          "name": "to",
          "type": "address"
        },
        {
          "internalType": "uint256",
          "name": "tokenId",
          "type": "uint256"
        }
      ],
      "name": "safeTransferFrom",
      "outputs": [],
      "stateMutability": "nonpayable",
      "type": "function"
    },
    {
      "inputs": [
        {
          "internalType": "address",
          "name": "from",
          "type": "address"
        },
        {
          "internalType": "address",
          "name": "to",
          "type": "address"
        },
        {
          "internalType": "uint256",
          "name": "tokenId",
          "type": "uint256"
        },
        {
          "internalType": "bytes",
          "name": "data",
          "type": "bytes"
        }
      ],
      "name": "safeTransferFrom",
      "outputs": [],
      "stateMutability": "nonpayable",
      "type": "function"
    },
    {
      "inputs": [],
      "name": "saleIsActive",
      "outputs": [
        {
          "internalType": "bool",
          "name": "",
          "type": "bool"
        }
      ],
      "stateMutability": "view",
      "type": "function"
    },
    {
      "inputs": [
        {
          "internalType": "address",
          "name": "operator",
          "type": "address"
        },
        {
          "internalType": "bool",
          "name": "approved",
          "type": "bool"
        }
      ],
      "name": "setApprovalForAll",
      "outputs": [],
      "stateMutability": "nonpayable",
      "type": "function"
    },
    {
      "inputs": [
        {
          "internalType": "bytes4",
          "name": "interfaceId",
          "type": "bytes4"
        }
      ],
      "name": "supportsInterface",
      "outputs": [
        {
          "internalType": "bool",
          "name": "",
          "type": "bool"
        }
      ],
      "stateMutability": "view",
      "type": "function"
    },
    {
      "inputs": [],
      "name": "symbol",
      "outputs": [
        {
          "internalType": "string",
          "name": "",
          "type": "string"
        }
      ],
      "stateMutability": "view",
      "type": "function"
    },
    {
      "inputs": [
        {
          "internalType": "uint256",
          "name": "index",
          "type": "uint256"
        }
      ],
      "name": "tokenByIndex",
      "outputs": [
        {
          "internalType": "uint256",
          "name": "",
          "type": "uint256"
        }
      ],
      "stateMutability": "view",
      "type": "function"
    },
    {
      "inputs": [
        {
          "internalType": "address",
          "name": "owner",
          "type": "address"
        },
        {
          "internalType": "uint256",
          "name": "index",
          "type": "uint256"
        }
      ],
      "name": "tokenOfOwnerByIndex",
      "outputs": [
        {
          "internalType": "uint256",
          "name": "",
          "type": "uint256"
        }
      ],
      "stateMutability": "view",
      "type": "function"
    },
    {
      "inputs": [
        {
          "internalType": "uint256",
          "name": "tokenId",
          "type": "uint256"
        }
      ],
      "name": "tokenURI",
      "outputs": [
        {
          "internalType": "string",
          "name": "",
          "type": "string"
        }
      ],
      "stateMutability": "view",
      "type": "function"
    },
    {
      "inputs": [],
      "name": "totalSupply",
      "outputs": [
        {
          "internalType": "uint256",
          "name": "",
          "type": "uint256"
        }
      ],
      "stateMutability": "view",
      "type": "function"
    },
    {
      "inputs": [
        {
          "internalType": "address",
          "name": "from",
          "type": "address"
        },
        {
          "internalType": "address",
          "name": "to",
          "type": "address"
        },
        {
          "internalType": "uint256",
          "name": "tokenId",
          "type": "uint256"
        }
      ],
      "name": "transferFrom",
      "outputs": [],
      "stateMutability": "nonpayable",
      "type": "function"
    },
    {
      "inputs": [
        {
          "internalType": "address",
          "name": "newOwner",
          "type": "address"
        }
      ],
      "name": "transferOwnership",
      "outputs": [],
      "stateMutability": "nonpayable",
      "type": "function"
    },
    {
      "inputs": [
        {
          "internalType": "address",
          "name": "_owner",
          "type": "address"
        }
      ],
      "name": "walletOfOwner",
      "outputs": [
        {
          "internalType": "uint256[]",
          "name": "",
          "type": "uint256[]"
        }
      ],
      "stateMutability": "view",
      "type": "function"
    },
    {
      "inputs": [],
      "name": "withdraw",
      "outputs": [],
      "stateMutability": "nonpayable",
      "type": "function"
    }
  ],
  "bytecode": "0x60806040526005601055600360115560026012556000601360006101000a81548160ff02191690831515021790555066038d7ea4c6800060145566071afd498d0000601555660aa87bee5380006016553480156200005c57600080fd5b506040518060400160405280600581526020017f50475469780000000000000000000000000000000000000000000000000000008152506040518060400160405280600481526020017f50475458000000000000000000000000000000000000000000000000000000008152508160009080519060200190620000e192919062000296565b508060019080519060200190620000fa92919062000296565b5050506200011d62000111620001b260201b60201c565b620001ba60201b60201c565b60405180606001604052806022815260200162004ced60229139600f90805190602001906200014e92919062000296565b5060005b6008811015620001ab5760058110156200017e576200017d600d6200028060201b62001c8e1760201c565b5b62000195600e6200028060201b62001c8e1760201c565b8080620001a2906200037f565b91505062000152565b5062000432565b600033905090565b6000600b60009054906101000a900473ffffffffffffffffffffffffffffffffffffffff16905081600b60006101000a81548173ffffffffffffffffffffffffffffffffffffffff021916908373ffffffffffffffffffffffffffffffffffffffff1602179055508173ffffffffffffffffffffffffffffffffffffffff168173ffffffffffffffffffffffffffffffffffffffff167f8be0079c531659141344cd1fd0a4f28419497f9722a3daafe3b4186f6b6457e060405160405180910390a35050565b6001816000016000828254019250508190555050565b828054620002a490620003fc565b90600052602060002090601f016020900481019282620002c8576000855562000314565b82601f10620002e357805160ff191683800117855562000314565b8280016001018555821562000314579182015b8281111562000313578251825591602001919060010190620002f6565b5b50905062000323919062000327565b5090565b5b808211156200034257600081600090555060010162000328565b5090565b7f4e487b7100000000000000000000000000000000000000000000000000000000600052601160045260246000fd5b6000819050919050565b60006200038c8262000375565b91507fffffffffffffffffffffffffffffffffffffffffffffffffffffffffffffffff821415620003c257620003c162000346565b5b600182019050919050565b7f4e487b7100000000000000000000000000000000000000000000000000000000600052602260045260246000fd5b600060028204905060018216806200041557607f821691505b602082108114156200042c576200042b620003cd565b5b50919050565b6148ab80620004426000396000f3fe6080604052600436106102255760003560e01c806387b0aa3f11610123578063b88d4fde116100ab578063df6997ab1161006f578063df6997ab146107a8578063e985e9c5146107d3578063eb8d244414610810578063ee55efee1461083b578063f2fde38b1461085257610225565b8063b88d4fde146106e4578063c87b56dd1461070d578063cabb5e951461074a578063d6e0d73c14610775578063d9a59e331461077f57610225565b8063a22cb465116100f2578063a22cb465146105ff578063a36c50eb14610628578063a53bd02614610651578063abdd97441461067c578063afbd1782146106b957610225565b806387b0aa3f146105535780638da5cb5b1461057e57806395d89b41146105a95780639c515072146105d457610225565b80633ccfd60b116101b15780635cabea5c116101755780635cabea5c1461048d5780636352211e146104b857806370a08231146104f5578063715018a6146105325780638043cf2d1461054957610225565b80633ccfd60b146103aa57806342842e0e146103c1578063438b6300146103ea5780634f6ccce71461042757806352bcaeec1461046457610225565b8063167ff46f116101f8578063167ff46f146102f857806318160ddd1461030f5780631c7f578a1461033a57806323b872dd146103445780632f745c591461036d57610225565b806301ffc9a71461022a57806306fdde0314610267578063081812fc14610292578063095ea7b3146102cf575b600080fd5b34801561023657600080fd5b50610251600480360381019061024c919061316a565b61087b565b60405161025e91906131b2565b60405180910390f35b34801561027357600080fd5b5061027c61088d565b6040516102899190613266565b60405180910390f35b34801561029e57600080fd5b506102b960048036038101906102b491906132be565b61091f565b6040516102c6919061332c565b60405180910390f35b3480156102db57600080fd5b506102f660048036038101906102f19190613373565b610965565b005b34801561030457600080fd5b5061030d610a7d565b005b34801561031b57600080fd5b50610324610aa2565b60405161033191906133c2565b60405180910390f35b610342610aaf565b005b34801561035057600080fd5b5061036b600480360381019061036691906133dd565b610bea565b005b34801561037957600080fd5b50610394600480360381019061038f9190613373565b610c4a565b6040516103a191906133c2565b60405180910390f35b3480156103b657600080fd5b506103bf610cef565b005b3480156103cd57600080fd5b506103e860048036038101906103e391906133dd565b610d8a565b005b3480156103f657600080fd5b50610411600480360381019061040c9190613430565b610daa565b60405161041e919061351b565b60405180910390f35b34801561043357600080fd5b5061044e600480360381019061044991906132be565b610e58565b60405161045b91906133c2565b60405180910390f35b34801561047057600080fd5b5061048b60048036038101906104869190613430565b610ec9565b005b34801561049957600080fd5b506104a26110f7565b6040516104af91906133c2565b60405180910390f35b3480156104c457600080fd5b506104df60048036038101906104da91906132be565b6110fd565b6040516104ec919061332c565b60405180910390f35b34801561050157600080fd5b5061051c60048036038101906105179190613430565b611184565b60405161052991906133c2565b60405180910390f35b34801561053e57600080fd5b5061054761123c565b005b610551611250565b005b34801561055f57600080fd5b5061056861138b565b60405161057591906133c2565b60405180910390f35b34801561058a57600080fd5b50610593611391565b6040516105a0919061332c565b60405180910390f35b3480156105b557600080fd5b506105be6113bb565b6040516105cb9190613266565b60405180910390f35b3480156105e057600080fd5b506105e961144d565b6040516105f691906133c2565b60405180910390f35b34801561060b57600080fd5b5061062660048036038101906106219190613569565b611453565b005b34801561063457600080fd5b5061064f600480360381019061064a9190613430565b611469565b005b34801561065d57600080fd5b50610666611697565b60405161067391906133c2565b60405180910390f35b34801561068857600080fd5b506106a3600480360381019061069e91906132be565b61169d565b6040516106b091906131b2565b60405180910390f35b3480156106c557600080fd5b506106ce6116c7565b6040516106db91906133c2565b60405180910390f35b3480156106f057600080fd5b5061070b600480360381019061070691906136de565b6116cc565b005b34801561071957600080fd5b50610734600480360381019061072f91906132be565b61172e565b6040516107419190613266565b60405180910390f35b34801561075657600080fd5b5061075f611817565b60405161076c91906133c2565b60405180910390f35b61077d61181d565b005b34801561078b57600080fd5b506107a660048036038101906107a19190613430565b611958565b005b3480156107b457600080fd5b506107bd611b38565b6040516107ca91906133c2565b60405180910390f35b3480156107df57600080fd5b506107fa60048036038101906107f59190613761565b611b3e565b60405161080791906131b2565b60405180910390f35b34801561081c57600080fd5b50610825611bd2565b60405161083291906131b2565b60405180910390f35b34801561084757600080fd5b50610850611be5565b005b34801561085e57600080fd5b5061087960048036038101906108749190613430565b611c0a565b005b600061088682611ca4565b9050919050565b60606000805461089c906137d0565b80601f01602080910402602001604051908101604052809291908181526020018280546108c8906137d0565b80156109155780601f106108ea57610100808354040283529160200191610915565b820191906000526020600020905b8154815290600101906020018083116108f857829003601f168201915b5050505050905090565b600061092a82611d1e565b6004600083815260200190815260200160002060009054906101000a900473ffffffffffffffffffffffffffffffffffffffff169050919050565b6000610970826110fd565b90508073ffffffffffffffffffffffffffffffffffffffff168373ffffffffffffffffffffffffffffffffffffffff1614156109e1576040517f08c379a00000000000000000000000000000000000000000000000000000000081526004016109d890613874565b60405180910390fd5b8073ffffffffffffffffffffffffffffffffffffffff16610a00611d69565b73ffffffffffffffffffffffffffffffffffffffff161480610a2f5750610a2e81610a29611d69565b611b3e565b5b610a6e576040517f08c379a0000000000000000000000000000000000000000000000000000000008152600401610a6590613906565b60405180910390fd5b610a788383611d71565b505050565b610a85611e2a565b6001601360006101000a81548160ff021916908315150217905550565b6000600980549050905090565b600060125411610af4576040517f08c379a0000000000000000000000000000000000000000000000000000000008152600401610aeb90613972565b60405180910390fd5b601360009054906101000a900460ff16610b43576040517f08c379a0000000000000000000000000000000000000000000000000000000008152600401610b3a906139de565b60405180910390fd5b601654341015610b88576040517f08c379a0000000000000000000000000000000000000000000000000000000008152600401610b7f90613a4a565b60405180910390fd5b610b9b33610b96600e611ea8565b611eb6565b610bc6610ba8600e611ea8565b60405180606001604052806033815260200161481060339139611ed4565b610bd0600e611c8e565b60126000815480929190610be390613a99565b9190505550565b610bfb610bf5611d69565b82611f48565b610c3a576040517f08c379a0000000000000000000000000000000000000000000000000000000008152600401610c3190613b35565b60405180910390fd5b610c45838383611fdd565b505050565b6000610c5583611184565b8210610c96576040517f08c379a0000000000000000000000000000000000000000000000000000000008152600401610c8d90613bc7565b60405180910390fd5b600760008473ffffffffffffffffffffffffffffffffffffffff1673ffffffffffffffffffffffffffffffffffffffff168152602001908152602001600020600083815260200190815260200160002054905092915050565b610cf7611e2a565b60004711610d3a576040517f08c379a0000000000000000000000000000000000000000000000000000000008152600401610d3190613c33565b60405180910390fd5b610d42611391565b73ffffffffffffffffffffffffffffffffffffffff166108fc479081150290604051600060405180830381858888f19350505050158015610d87573d6000803e3d6000fd5b50565b610da5838383604051806020016040528060008152506116cc565b505050565b60606000610db783611184565b905060008167ffffffffffffffff811115610dd557610dd46135b3565b5b604051908082528060200260200182016040528015610e035781602001602082028036833780820191505090505b50905060005b82811015610e4d57610e1b8582610c4a565b828281518110610e2e57610e2d613c53565b5b6020026020010181815250508080610e4590613c82565b915050610e09565b508092505050919050565b6000610e62610aa2565b8210610ea3576040517f08c379a0000000000000000000000000000000000000000000000000000000008152600401610e9a90613d3d565b60405180910390fd5b60098281548110610eb757610eb6613c53565b5b90600052602060002001549050919050565b610ed1611e2a565b6000610edc82611184565b11610f1c576040517f08c379a0000000000000000000000000000000000000000000000000000000008152600401610f1390613da9565b60405180910390fd5b6000610f29826000610c4a565b9050610f34816122d7565b610f73576040517f08c379a0000000000000000000000000000000000000000000000000000000008152600401610f6a90613e15565b60405180910390fd5b6019600082815260200190815260200160002060009054906101000a900460ff1615610fd4576040517f08c379a0000000000000000000000000000000000000000000000000000000008152600401610fcb90613e81565b60405180910390fd5b8173ffffffffffffffffffffffffffffffffffffffff16610ff4826110fd565b73ffffffffffffffffffffffffffffffffffffffff161461104a576040517f08c379a000000000000000000000000000000000000000000000000000000000815260040161104190613eed565b60405180910390fd5b611055826000610c4a565b905060016019600083815260200190815260200160002060006101000a81548160ff0219169083151502179055506018600082815260200190815260200160002060009054906101000a900460ff16156110d0576110cb816040518060600160405280603381526020016147dd60339139612318565b6110f3565b6110f28160405180606001604052806033815260200161484360339139612318565b5b5050565b60115481565b6000806111098361238c565b9050600073ffffffffffffffffffffffffffffffffffffffff168173ffffffffffffffffffffffffffffffffffffffff16141561117b576040517f08c379a000000000000000000000000000000000000000000000000000000000815260040161117290613f59565b60405180910390fd5b80915050919050565b60008073ffffffffffffffffffffffffffffffffffffffff168273ffffffffffffffffffffffffffffffffffffffff1614156111f5576040517f08c379a00000000000000000000000000000000000000000000000000000000081526004016111ec90613feb565b60405180910390fd5b600360008373ffffffffffffffffffffffffffffffffffffffff1673ffffffffffffffffffffffffffffffffffffffff168152602001908152602001600020549050919050565b611244611e2a565b61124e60006123c9565b565b600060115411611295576040517f08c379a000000000000000000000000000000000000000000000000000000000815260040161128c90613972565b60405180910390fd5b601360009054906101000a900460ff166112e4576040517f08c379a00000000000000000000000000000000000000000000000000000000081526004016112db906139de565b60405180910390fd5b601554341015611329576040517f08c379a000000000000000000000000000000000000000000000000000000000815260040161132090613a4a565b60405180910390fd5b61133c33611337600d611ea8565b611eb6565b611367611349600d611ea8565b60405180606001604052806033815260200161481060339139611ed4565b611371600d611c8e565b6011600081548092919061138490613a99565b9190505550565b60155481565b6000600b60009054906101000a900473ffffffffffffffffffffffffffffffffffffffff16905090565b6060600180546113ca906137d0565b80601f01602080910402602001604051908101604052809291908181526020018280546113f6906137d0565b80156114435780601f1061141857610100808354040283529160200191611443565b820191906000526020600020905b81548152906001019060200180831161142657829003601f168201915b5050505050905090565b60165481565b61146561145e611d69565b838361248f565b5050565b611471611e2a565b600061147c82611184565b116114bc576040517f08c379a00000000000000000000000000000000000000000000000000000000081526004016114b390613da9565b60405180910390fd5b60006114c9826000610c4a565b90506114d4816122d7565b611513576040517f08c379a000000000000000000000000000000000000000000000000000000000815260040161150a90613e15565b60405180910390fd5b6018600082815260200190815260200160002060009054906101000a900460ff1615611574576040517f08c379a000000000000000000000000000000000000000000000000000000000815260040161156b90614057565b60405180910390fd5b8173ffffffffffffffffffffffffffffffffffffffff16611594826110fd565b73ffffffffffffffffffffffffffffffffffffffff16146115ea576040517f08c379a00000000000000000000000000000000000000000000000000000000081526004016115e190613eed565b60405180910390fd5b6115f5826000610c4a565b905060016018600083815260200190815260200160002060006101000a81548160ff0219169083151502179055506019600082815260200190815260200160002060009054906101000a900460ff16156116705761166b816040518060600160405280603381526020016147dd60339139612318565b611693565b611692816040518060600160405280603381526020016147aa60339139612318565b5b5050565b60105481565b60006017600083815260200190815260200160002060009054906101000a900460ff169050919050565b600a81565b6116dd6116d7611d69565b83611f48565b61171c576040517f08c379a000000000000000000000000000000000000000000000000000000000815260040161171390613b35565b60405180910390fd5b611728848484846125fc565b50505050565b6060611739826122d7565b611778576040517f08c379a000000000000000000000000000000000000000000000000000000000815260040161176f90613e15565b60405180910390fd5b6017600083815260200190815260200160002060009054906101000a900460ff16156117da57600f601b60008481526020019081526020016000206040516020016117c4929190614116565b6040516020818303038152906040529050611812565b600f601a6000848152602001908152602001600020604051602001611800929190614116565b60405160208183030381529060405290505b919050565b60145481565b600060105411611862576040517f08c379a000000000000000000000000000000000000000000000000000000000815260040161185990613972565b60405180910390fd5b601360009054906101000a900460ff166118b1576040517f08c379a00000000000000000000000000000000000000000000000000000000081526004016118a8906139de565b60405180910390fd5b6014543410156118f6576040517f08c379a00000000000000000000000000000000000000000000000000000000081526004016118ed90613a4a565b60405180910390fd5b61190933611904600c611ea8565b611eb6565b611934611916600c611ea8565b60405180606001604052806033815260200161481060339139611ed4565b61193e600c611c8e565b6010600081548092919061195190613a99565b9190505550565b611960611e2a565b600061196b82611184565b116119ab576040517f08c379a00000000000000000000000000000000000000000000000000000000081526004016119a290613da9565b60405180910390fd5b60006119b8826000610c4a565b90506119c3816122d7565b611a02576040517f08c379a00000000000000000000000000000000000000000000000000000000081526004016119f990613e15565b60405180910390fd5b6017600082815260200190815260200160002060009054906101000a900460ff1615611a63576040517f08c379a0000000000000000000000000000000000000000000000000000000008152600401611a5a90614186565b60405180910390fd5b8173ffffffffffffffffffffffffffffffffffffffff16611a83826110fd565b73ffffffffffffffffffffffffffffffffffffffff1614611ad9576040517f08c379a0000000000000000000000000000000000000000000000000000000008152600401611ad090613eed565b60405180910390fd5b611ae4826000610c4a565b905060016017600083815260200190815260200160002060006101000a81548160ff021916908315150217905550611b348160405180606001604052806033815260200161477760339139612318565b5050565b60125481565b6000600560008473ffffffffffffffffffffffffffffffffffffffff1673ffffffffffffffffffffffffffffffffffffffff16815260200190815260200160002060008373ffffffffffffffffffffffffffffffffffffffff1673ffffffffffffffffffffffffffffffffffffffff16815260200190815260200160002060009054906101000a900460ff16905092915050565b601360009054906101000a900460ff1681565b611bed611e2a565b6000601360006101000a81548160ff021916908315150217905550565b611c12611e2a565b600073ffffffffffffffffffffffffffffffffffffffff168173ffffffffffffffffffffffffffffffffffffffff161415611c82576040517f08c379a0000000000000000000000000000000000000000000000000000000008152600401611c7990614218565b60405180910390fd5b611c8b816123c9565b50565b6001816000016000828254019250508190555050565b60007f780e9d63000000000000000000000000000000000000000000000000000000007bffffffffffffffffffffffffffffffffffffffffffffffffffffffff1916827bffffffffffffffffffffffffffffffffffffffffffffffffffffffff19161480611d175750611d1682612658565b5b9050919050565b611d27816122d7565b611d66576040517f08c379a0000000000000000000000000000000000000000000000000000000008152600401611d5d90613f59565b60405180910390fd5b50565b600033905090565b816004600083815260200190815260200160002060006101000a81548173ffffffffffffffffffffffffffffffffffffffff021916908373ffffffffffffffffffffffffffffffffffffffff160217905550808273ffffffffffffffffffffffffffffffffffffffff16611de4836110fd565b73ffffffffffffffffffffffffffffffffffffffff167f8c5be1e5ebec7d5bd14f71427d1e84f3dd0314c0f7b2291e5b200ac8c7c3b92560405160405180910390a45050565b611e32611d69565b73ffffffffffffffffffffffffffffffffffffffff16611e50611391565b73ffffffffffffffffffffffffffffffffffffffff1614611ea6576040517f08c379a0000000000000000000000000000000000000000000000000000000008152600401611e9d90614284565b60405180910390fd5b565b600081600001549050919050565b611ed082826040518060200160405280600081525061273a565b5050565b611edd826122d7565b611f1c576040517f08c379a0000000000000000000000000000000000000000000000000000000008152600401611f1390613e15565b60405180910390fd5b80601a60008481526020019081526020016000209080519060200190611f4392919061305b565b505050565b600080611f54836110fd565b90508073ffffffffffffffffffffffffffffffffffffffff168473ffffffffffffffffffffffffffffffffffffffff161480611f965750611f958185611b3e565b5b80611fd457508373ffffffffffffffffffffffffffffffffffffffff16611fbc8461091f565b73ffffffffffffffffffffffffffffffffffffffff16145b91505092915050565b8273ffffffffffffffffffffffffffffffffffffffff16611ffd826110fd565b73ffffffffffffffffffffffffffffffffffffffff1614612053576040517f08c379a000000000000000000000000000000000000000000000000000000000815260040161204a90614316565b60405180910390fd5b600073ffffffffffffffffffffffffffffffffffffffff168273ffffffffffffffffffffffffffffffffffffffff1614156120c3576040517f08c379a00000000000000000000000000000000000000000000000000000000081526004016120ba906143a8565b60405180910390fd5b6120d08383836001612795565b8273ffffffffffffffffffffffffffffffffffffffff166120f0826110fd565b73ffffffffffffffffffffffffffffffffffffffff1614612146576040517f08c379a000000000000000000000000000000000000000000000000000000000815260040161213d90614316565b60405180910390fd5b6004600082815260200190815260200160002060006101000a81549073ffffffffffffffffffffffffffffffffffffffff02191690556001600360008573ffffffffffffffffffffffffffffffffffffffff1673ffffffffffffffffffffffffffffffffffffffff168152602001908152602001600020600082825403925050819055506001600360008473ffffffffffffffffffffffffffffffffffffffff1673ffffffffffffffffffffffffffffffffffffffff16815260200190815260200160002060008282540192505081905550816002600083815260200190815260200160002060006101000a81548173ffffffffffffffffffffffffffffffffffffffff021916908373ffffffffffffffffffffffffffffffffffffffff160217905550808273ffffffffffffffffffffffffffffffffffffffff168473ffffffffffffffffffffffffffffffffffffffff167fddf252ad1be2c89b69c2b068fc378daa952ba7f163c4a11628f55a4df523b3ef60405160405180910390a46122d283838360016127a7565b505050565b60008073ffffffffffffffffffffffffffffffffffffffff166122f98361238c565b73ffffffffffffffffffffffffffffffffffffffff1614159050919050565b612321826122d7565b612360576040517f08c379a000000000000000000000000000000000000000000000000000000000815260040161235790613e15565b60405180910390fd5b80601b6000848152602001908152602001600020908051906020019061238792919061305b565b505050565b60006002600083815260200190815260200160002060009054906101000a900473ffffffffffffffffffffffffffffffffffffffff169050919050565b6000600b60009054906101000a900473ffffffffffffffffffffffffffffffffffffffff16905081600b60006101000a81548173ffffffffffffffffffffffffffffffffffffffff021916908373ffffffffffffffffffffffffffffffffffffffff1602179055508173ffffffffffffffffffffffffffffffffffffffff168173ffffffffffffffffffffffffffffffffffffffff167f8be0079c531659141344cd1fd0a4f28419497f9722a3daafe3b4186f6b6457e060405160405180910390a35050565b8173ffffffffffffffffffffffffffffffffffffffff168373ffffffffffffffffffffffffffffffffffffffff1614156124fe576040517f08c379a00000000000000000000000000000000000000000000000000000000081526004016124f590614414565b60405180910390fd5b80600560008573ffffffffffffffffffffffffffffffffffffffff1673ffffffffffffffffffffffffffffffffffffffff16815260200190815260200160002060008473ffffffffffffffffffffffffffffffffffffffff1673ffffffffffffffffffffffffffffffffffffffff16815260200190815260200160002060006101000a81548160ff0219169083151502179055508173ffffffffffffffffffffffffffffffffffffffff168373ffffffffffffffffffffffffffffffffffffffff167f17307eab39ab6107e8899845ad3d59bd9653f200f220920489ca2b5937696c31836040516125ef91906131b2565b60405180910390a3505050565b612607848484611fdd565b612613848484846127ad565b612652576040517f08c379a0000000000000000000000000000000000000000000000000000000008152600401612649906144a6565b60405180910390fd5b50505050565b60007f80ac58cd000000000000000000000000000000000000000000000000000000007bffffffffffffffffffffffffffffffffffffffffffffffffffffffff1916827bffffffffffffffffffffffffffffffffffffffffffffffffffffffff1916148061272357507f5b5e139f000000000000000000000000000000000000000000000000000000007bffffffffffffffffffffffffffffffffffffffffffffffffffffffff1916827bffffffffffffffffffffffffffffffffffffffffffffffffffffffff1916145b80612733575061273282612944565b5b9050919050565b61274483836129ae565b61275160008484846127ad565b612790576040517f08c379a0000000000000000000000000000000000000000000000000000000008152600401612787906144a6565b60405180910390fd5b505050565b6127a184848484612bcc565b50505050565b50505050565b60006127ce8473ffffffffffffffffffffffffffffffffffffffff16612d2c565b15612937578373ffffffffffffffffffffffffffffffffffffffff1663150b7a026127f7611d69565b8786866040518563ffffffff1660e01b8152600401612819949392919061451b565b602060405180830381600087803b15801561283357600080fd5b505af192505050801561286457506040513d601f19601f82011682018060405250810190612861919061457c565b60015b6128e7573d8060008114612894576040519150601f19603f3d011682016040523d82523d6000602084013e612899565b606091505b506000815114156128df576040517f08c379a00000000000000000000000000000000000000000000000000000000081526004016128d6906144a6565b60405180910390fd5b805181602001fd5b63150b7a0260e01b7bffffffffffffffffffffffffffffffffffffffffffffffffffffffff1916817bffffffffffffffffffffffffffffffffffffffffffffffffffffffff19161491505061293c565b600190505b949350505050565b60007f01ffc9a7000000000000000000000000000000000000000000000000000000007bffffffffffffffffffffffffffffffffffffffffffffffffffffffff1916827bffffffffffffffffffffffffffffffffffffffffffffffffffffffff1916149050919050565b600073ffffffffffffffffffffffffffffffffffffffff168273ffffffffffffffffffffffffffffffffffffffff161415612a1e576040517f08c379a0000000000000000000000000000000000000000000000000000000008152600401612a15906145f5565b60405180910390fd5b612a27816122d7565b15612a67576040517f08c379a0000000000000000000000000000000000000000000000000000000008152600401612a5e90614661565b60405180910390fd5b612a75600083836001612795565b612a7e816122d7565b15612abe576040517f08c379a0000000000000000000000000000000000000000000000000000000008152600401612ab590614661565b60405180910390fd5b6001600360008473ffffffffffffffffffffffffffffffffffffffff1673ffffffffffffffffffffffffffffffffffffffff16815260200190815260200160002060008282540192505081905550816002600083815260200190815260200160002060006101000a81548173ffffffffffffffffffffffffffffffffffffffff021916908373ffffffffffffffffffffffffffffffffffffffff160217905550808273ffffffffffffffffffffffffffffffffffffffff16600073ffffffffffffffffffffffffffffffffffffffff167fddf252ad1be2c89b69c2b068fc378daa952ba7f163c4a11628f55a4df523b3ef60405160405180910390a4612bc86000838360016127a7565b5050565b612bd884848484612d4f565b6001811115612c1c576040517f08c379a0000000000000000000000000000000000000000000000000000000008152600401612c13906146f3565b60405180910390fd5b6000829050600073ffffffffffffffffffffffffffffffffffffffff168573ffffffffffffffffffffffffffffffffffffffff161415612c6457612c5f81612d55565b612ca3565b8373ffffffffffffffffffffffffffffffffffffffff168573ffffffffffffffffffffffffffffffffffffffff1614612ca257612ca18582612d9e565b5b5b600073ffffffffffffffffffffffffffffffffffffffff168473ffffffffffffffffffffffffffffffffffffffff161415612ce657612ce181612f0b565b612d25565b8473ffffffffffffffffffffffffffffffffffffffff168473ffffffffffffffffffffffffffffffffffffffff1614612d2457612d238482612fdc565b5b5b5050505050565b6000808273ffffffffffffffffffffffffffffffffffffffff163b119050919050565b50505050565b600980549050600a600083815260200190815260200160002081905550600981908060018154018082558091505060019003906000526020600020016000909190919091505550565b60006001612dab84611184565b612db59190614713565b9050600060086000848152602001908152602001600020549050818114612e9a576000600760008673ffffffffffffffffffffffffffffffffffffffff1673ffffffffffffffffffffffffffffffffffffffff168152602001908152602001600020600084815260200190815260200160002054905080600760008773ffffffffffffffffffffffffffffffffffffffff1673ffffffffffffffffffffffffffffffffffffffff168152602001908152602001600020600084815260200190815260200160002081905550816008600083815260200190815260200160002081905550505b6008600084815260200190815260200160002060009055600760008573ffffffffffffffffffffffffffffffffffffffff1673ffffffffffffffffffffffffffffffffffffffff16815260200190815260200160002060008381526020019081526020016000206000905550505050565b60006001600980549050612f1f9190614713565b90506000600a6000848152602001908152602001600020549050600060098381548110612f4f57612f4e613c53565b5b906000526020600020015490508060098381548110612f7157612f70613c53565b5b906000526020600020018190555081600a600083815260200190815260200160002081905550600a6000858152602001908152602001600020600090556009805480612fc057612fbf614747565b5b6001900381819060005260206000200160009055905550505050565b6000612fe783611184565b905081600760008573ffffffffffffffffffffffffffffffffffffffff1673ffffffffffffffffffffffffffffffffffffffff168152602001908152602001600020600083815260200190815260200160002081905550806008600084815260200190815260200160002081905550505050565b828054613067906137d0565b90600052602060002090601f01602090048101928261308957600085556130d0565b82601f106130a257805160ff19168380011785556130d0565b828001600101855582156130d0579182015b828111156130cf5782518255916020019190600101906130b4565b5b5090506130dd91906130e1565b5090565b5b808211156130fa5760008160009055506001016130e2565b5090565b6000604051905090565b600080fd5b600080fd5b60007fffffffff0000000000000000000000000000000000000000000000000000000082169050919050565b61314781613112565b811461315257600080fd5b50565b6000813590506131648161313e565b92915050565b6000602082840312156131805761317f613108565b5b600061318e84828501613155565b91505092915050565b60008115159050919050565b6131ac81613197565b82525050565b60006020820190506131c760008301846131a3565b92915050565b600081519050919050565b600082825260208201905092915050565b60005b838110156132075780820151818401526020810190506131ec565b83811115613216576000848401525b50505050565b6000601f19601f8301169050919050565b6000613238826131cd565b61324281856131d8565b93506132528185602086016131e9565b61325b8161321c565b840191505092915050565b60006020820190508181036000830152613280818461322d565b905092915050565b6000819050919050565b61329b81613288565b81146132a657600080fd5b50565b6000813590506132b881613292565b92915050565b6000602082840312156132d4576132d3613108565b5b60006132e2848285016132a9565b91505092915050565b600073ffffffffffffffffffffffffffffffffffffffff82169050919050565b6000613316826132eb565b9050919050565b6133268161330b565b82525050565b6000602082019050613341600083018461331d565b92915050565b6133508161330b565b811461335b57600080fd5b50565b60008135905061336d81613347565b92915050565b6000806040838503121561338a57613389613108565b5b60006133988582860161335e565b92505060206133a9858286016132a9565b9150509250929050565b6133bc81613288565b82525050565b60006020820190506133d760008301846133b3565b92915050565b6000806000606084860312156133f6576133f5613108565b5b60006134048682870161335e565b93505060206134158682870161335e565b9250506040613426868287016132a9565b9150509250925092565b60006020828403121561344657613445613108565b5b60006134548482850161335e565b91505092915050565b600081519050919050565b600082825260208201905092915050565b6000819050602082019050919050565b61349281613288565b82525050565b60006134a48383613489565b60208301905092915050565b6000602082019050919050565b60006134c88261345d565b6134d28185613468565b93506134dd83613479565b8060005b8381101561350e5781516134f58882613498565b9750613500836134b0565b9250506001810190506134e1565b5085935050505092915050565b6000602082019050818103600083015261353581846134bd565b905092915050565b61354681613197565b811461355157600080fd5b50565b6000813590506135638161353d565b92915050565b600080604083850312156135805761357f613108565b5b600061358e8582860161335e565b925050602061359f85828601613554565b9150509250929050565b600080fd5b600080fd5b7f4e487b7100000000000000000000000000000000000000000000000000000000600052604160045260246000fd5b6135eb8261321c565b810181811067ffffffffffffffff8211171561360a576136096135b3565b5b80604052505050565b600061361d6130fe565b905061362982826135e2565b919050565b600067ffffffffffffffff821115613649576136486135b3565b5b6136528261321c565b9050602081019050919050565b82818337600083830152505050565b600061368161367c8461362e565b613613565b90508281526020810184848401111561369d5761369c6135ae565b5b6136a884828561365f565b509392505050565b600082601f8301126136c5576136c46135a9565b5b81356136d584826020860161366e565b91505092915050565b600080600080608085870312156136f8576136f7613108565b5b60006137068782880161335e565b94505060206137178782880161335e565b9350506040613728878288016132a9565b925050606085013567ffffffffffffffff8111156137495761374861310d565b5b613755878288016136b0565b91505092959194509250565b6000806040838503121561377857613777613108565b5b60006137868582860161335e565b92505060206137978582860161335e565b9150509250929050565b7f4e487b7100000000000000000000000000000000000000000000000000000000600052602260045260246000fd5b600060028204905060018216806137e857607f821691505b602082108114156137fc576137fb6137a1565b5b50919050565b7f4552433732313a20617070726f76616c20746f2063757272656e74206f776e6560008201527f7200000000000000000000000000000000000000000000000000000000000000602082015250565b600061385e6021836131d8565b915061386982613802565b604082019050919050565b6000602082019050818103600083015261388d81613851565b9050919050565b7f4552433732313a20617070726f76652063616c6c6572206973206e6f7420746f60008201527f6b656e206f776e6572206f7220617070726f76656420666f7220616c6c000000602082015250565b60006138f0603d836131d8565b91506138fb82613894565b604082019050919050565b6000602082019050818103600083015261391f816138e3565b9050919050565b7f4e6f206d6f7265207469636b65747320617661696c61626c6500000000000000600082015250565b600061395c6019836131d8565b915061396782613926565b602082019050919050565b6000602082019050818103600083015261398b8161394f565b9050919050565b7f5469636b65747320617265206e6f74206f6e2073616c65210000000000000000600082015250565b60006139c86018836131d8565b91506139d382613992565b602082019050919050565b600060208201905081810360008301526139f7816139bb565b9050919050565b7f4e6f7420656e6f756768204554482073656e7400000000000000000000000000600082015250565b6000613a346013836131d8565b9150613a3f826139fe565b602082019050919050565b60006020820190508181036000830152613a6381613a27565b9050919050565b7f4e487b7100000000000000000000000000000000000000000000000000000000600052601160045260246000fd5b6000613aa482613288565b91506000821415613ab857613ab7613a6a565b5b600182039050919050565b7f4552433732313a2063616c6c6572206973206e6f7420746f6b656e206f776e6560008201527f72206f7220617070726f76656400000000000000000000000000000000000000602082015250565b6000613b1f602d836131d8565b9150613b2a82613ac3565b604082019050919050565b60006020820190508181036000830152613b4e81613b12565b9050919050565b7f455243373231456e756d657261626c653a206f776e657220696e646578206f7560008201527f74206f6620626f756e6473000000000000000000000000000000000000000000602082015250565b6000613bb1602b836131d8565b9150613bbc82613b55565b604082019050919050565b60006020820190508181036000830152613be081613ba4565b9050919050565b7f42616c616e636520697320656d70747900000000000000000000000000000000600082015250565b6000613c1d6010836131d8565b9150613c2882613be7565b602082019050919050565b60006020820190508181036000830152613c4c81613c10565b9050919050565b7f4e487b7100000000000000000000000000000000000000000000000000000000600052603260045260246000fd5b6000613c8d82613288565b91507fffffffffffffffffffffffffffffffffffffffffffffffffffffffffffffffff821415613cc057613cbf613a6a565b5b600182019050919050565b7f455243373231456e756d657261626c653a20676c6f62616c20696e646578206f60008201527f7574206f6620626f756e64730000000000000000000000000000000000000000602082015250565b6000613d27602c836131d8565b9150613d3282613ccb565b604082019050919050565b60006020820190508181036000830152613d5681613d1a565b9050919050565b7f4164647265737320646f65736e2774206861766520746f6b656e000000000000600082015250565b6000613d93601a836131d8565b9150613d9e82613d5d565b602082019050919050565b60006020820190508181036000830152613dc281613d86565b9050919050565b7f546f6b656e204944206e6f7420666f756e640000000000000000000000000000600082015250565b6000613dff6012836131d8565b9150613e0a82613dc9565b602082019050919050565b60006020820190508181036000830152613e2e81613df2565b9050919050565b7f5469636b657420616c726561647920636865636b656420696e20537461676532600082015250565b6000613e6b6020836131d8565b9150613e7682613e35565b602082019050919050565b60006020820190508181036000830152613e9a81613e5e565b9050919050565b7f43616c6c6572206d75737420626520746865207469636b6574206f776e657200600082015250565b6000613ed7601f836131d8565b9150613ee282613ea1565b602082019050919050565b60006020820190508181036000830152613f0681613eca565b9050919050565b7f4552433732313a20696e76616c696420746f6b656e2049440000000000000000600082015250565b6000613f436018836131d8565b9150613f4e82613f0d565b602082019050919050565b60006020820190508181036000830152613f7281613f36565b9050919050565b7f4552433732313a2061646472657373207a65726f206973206e6f74206120766160008201527f6c6964206f776e65720000000000000000000000000000000000000000000000602082015250565b6000613fd56029836131d8565b9150613fe082613f79565b604082019050919050565b6000602082019050818103600083015261400481613fc8565b9050919050565b7f5469636b657420616c726561647920636865636b656420696e20537461676531600082015250565b60006140416020836131d8565b915061404c8261400b565b602082019050919050565b6000602082019050818103600083015261407081614034565b9050919050565b600081905092915050565b60008190508160005260206000209050919050565b600081546140a4816137d0565b6140ae8186614077565b945060018216600081146140c957600181146140da5761410d565b60ff1983168652818601935061410d565b6140e385614082565b60005b83811015614105578154818901526001820191506020810190506140e6565b838801955050505b50505092915050565b60006141228285614097565b915061412e8284614097565b91508190509392505050565b7f5469636b657420616c726561647920636865636b656420696e00000000000000600082015250565b60006141706019836131d8565b915061417b8261413a565b602082019050919050565b6000602082019050818103600083015261419f81614163565b9050919050565b7f4f776e61626c653a206e6577206f776e657220697320746865207a65726f206160008201527f6464726573730000000000000000000000000000000000000000000000000000602082015250565b60006142026026836131d8565b915061420d826141a6565b604082019050919050565b60006020820190508181036000830152614231816141f5565b9050919050565b7f4f776e61626c653a2063616c6c6572206973206e6f7420746865206f776e6572600082015250565b600061426e6020836131d8565b915061427982614238565b602082019050919050565b6000602082019050818103600083015261429d81614261565b9050919050565b7f4552433732313a207472616e736665722066726f6d20696e636f72726563742060008201527f6f776e6572000000000000000000000000000000000000000000000000000000602082015250565b60006143006025836131d8565b915061430b826142a4565b604082019050919050565b6000602082019050818103600083015261432f816142f3565b9050919050565b7f4552433732313a207472616e7366657220746f20746865207a65726f2061646460008201527f7265737300000000000000000000000000000000000000000000000000000000602082015250565b60006143926024836131d8565b915061439d82614336565b604082019050919050565b600060208201905081810360008301526143c181614385565b9050919050565b7f4552433732313a20617070726f766520746f2063616c6c657200000000000000600082015250565b60006143fe6019836131d8565b9150614409826143c8565b602082019050919050565b6000602082019050818103600083015261442d816143f1565b9050919050565b7f4552433732313a207472616e7366657220746f206e6f6e20455243373231526560008201527f63656976657220696d706c656d656e7465720000000000000000000000000000602082015250565b60006144906032836131d8565b915061449b82614434565b604082019050919050565b600060208201905081810360008301526144bf81614483565b9050919050565b600081519050919050565b600082825260208201905092915050565b60006144ed826144c6565b6144f781856144d1565b93506145078185602086016131e9565b6145108161321c565b840191505092915050565b6000608082019050614530600083018761331d565b61453d602083018661331d565b61454a60408301856133b3565b818103606083015261455c81846144e2565b905095945050505050565b6000815190506145768161313e565b92915050565b60006020828403121561459257614591613108565b5b60006145a084828501614567565b91505092915050565b7f4552433732313a206d696e7420746f20746865207a65726f2061646472657373600082015250565b60006145df6020836131d8565b91506145ea826145a9565b602082019050919050565b6000602082019050818103600083015261460e816145d2565b9050919050565b7f4552433732313a20746f6b656e20616c7265616479206d696e74656400000000600082015250565b600061464b601c836131d8565b915061465682614615565b602082019050919050565b6000602082019050818103600083015261467a8161463e565b9050919050565b7f455243373231456e756d657261626c653a20636f6e736563757469766520747260008201527f616e7366657273206e6f7420737570706f727465640000000000000000000000602082015250565b60006146dd6035836131d8565b91506146e882614681565b604082019050919050565b6000602082019050818103600083015261470c816146d0565b9050919050565b600061471e82613288565b915061472983613288565b92508282101561473c5761473b613a6a565b5b828203905092915050565b7f4e487b7100000000000000000000000000000000000000000000000000000000600052603160045260246000fdfe516d514b6b6b34656f4e6b3552426972556e6754687876586f6f45514a425a67464850654a4c774a75476971595a2f7b69647d516d5547365a6a56417067757641334135363859374d7154506a55474a475558423369543675584537645a3665692f7b69647d516d554547546f354b4e44684b725a50444b533162435973345a4e6e483343686f6467396570537a505a52397a532f7b69647d516d5761523471643969393942515965445658743832366e7165576b4d433166523332627a6e4b68786a676a31522f7b69647d516d574579685837354d5a5552576d4438346546656274773573576e373579346a6b754d594355685958727058572f7b69647da264697066735822122006bb48f697e23734a1bb9bbe11d08a9d0450ee1462805aeead9ce60cc6235a9264736f6c6343000809003368747470733a2f2f676174657761792e70696e6174612e636c6f75642f697066732f",
  "linkReferences": {},
  "deployedLinkReferences": {}
}