{
  "_format": "hh-sol-artifact-1",
  "contractName": "CheckInNFT",
  "sourceName": "contracts/NFTTicket721.sol",
  "abi": [
    {
      "inputs": [],
      "stateMutability": "nonpayable",
      "type": "constructor"
    },
    {
      "anonymous": false,
      "inputs": [
        {
          "indexed": true,
          "internalType": "address",
          "name": "owner",
          "type": "address"
        },
        {
          "indexed": true,
          "internalType": "address",
          "name": "approved",
          "type": "address"
        },
        {
          "indexed": true,
          "internalType": "uint256",
          "name": "tokenId",
          "type": "uint256"
        }
      ],
      "name": "Approval",
      "type": "event"
    },
    {
      "anonymous": false,
      "inputs": [
        {
          "indexed": true,
          "internalType": "address",
          "name": "owner",
          "type": "address"
        },
        {
          "indexed": true,
          "internalType": "address",
          "name": "operator",
          "type": "address"
        },
        {
          "indexed": false,
          "internalType": "bool",
          "name": "approved",
          "type": "bool"
        }
      ],
      "name": "ApprovalForAll",
      "type": "event"
    },
    {
      "anonymous": false,
      "inputs": [
        {
          "indexed": true,
          "internalType": "address",
          "name": "previousOwner",
          "type": "address"
        },
        {
          "indexed": true,
          "internalType": "address",
          "name": "newOwner",
          "type": "address"
        }
      ],
      "name": "OwnershipTransferred",
      "type": "event"
    },
    {
      "anonymous": false,
      "inputs": [
        {
          "indexed": true,
          "internalType": "address",
          "name": "from",
          "type": "address"
        },
        {
          "indexed": true,
          "internalType": "address",
          "name": "to",
          "type": "address"
        },
        {
          "indexed": true,
          "internalType": "uint256",
          "name": "tokenId",
          "type": "uint256"
        }
      ],
      "name": "Transfer",
      "type": "event"
    },
    {
      "inputs": [],
      "name": "TOTAL_TICKETS",
      "outputs": [
        {
          "internalType": "uint256",
          "name": "",
          "type": "uint256"
        }
      ],
      "stateMutability": "view",
      "type": "function"
    },
    {
      "inputs": [
        {
          "internalType": "address",
          "name": "to",
          "type": "address"
        },
        {
          "internalType": "uint256",
          "name": "tokenId",
          "type": "uint256"
        }
      ],
      "name": "approve",
      "outputs": [],
      "stateMutability": "nonpayable",
      "type": "function"
    },
    {
      "inputs": [],
      "name": "availableTickets",
      "outputs": [
        {
          "internalType": "uint256",
          "name": "",
          "type": "uint256"
        }
      ],
      "stateMutability": "view",
      "type": "function"
    },
    {
      "inputs": [
        {
          "internalType": "address",
          "name": "owner",
          "type": "address"
        }
      ],
      "name": "balanceOf",
      "outputs": [
        {
          "internalType": "uint256",
          "name": "",
          "type": "uint256"
        }
      ],
      "stateMutability": "view",
      "type": "function"
    },
    {
      "inputs": [
        {
          "internalType": "uint256",
          "name": "tokenId",
          "type": "uint256"
        }
      ],
      "name": "checkIn",
      "outputs": [],
      "stateMutability": "nonpayable",
      "type": "function"
    },
    {
      "inputs": [
        {
          "internalType": "uint256",
          "name": "tokenId",
          "type": "uint256"
        }
      ],
      "name": "getApproved",
      "outputs": [
        {
          "internalType": "address",
          "name": "",
          "type": "address"
        }
      ],
      "stateMutability": "view",
      "type": "function"
    },
    {
      "inputs": [
        {
          "internalType": "address",
          "name": "owner",
          "type": "address"
        },
        {
          "internalType": "address",
          "name": "operator",
          "type": "address"
        }
      ],
      "name": "isApprovedForAll",
      "outputs": [
        {
          "internalType": "bool",
          "name": "",
          "type": "bool"
        }
      ],
      "stateMutability": "view",
      "type": "function"
    },
    {
      "inputs": [
        {
          "internalType": "uint256",
          "name": "tokenId",
          "type": "uint256"
        }
      ],
      "name": "isCheckedIn",
      "outputs": [
        {
          "internalType": "bool",
          "name": "",
          "type": "bool"
        }
      ],
      "stateMutability": "view",
      "type": "function"
    },
    {
      "inputs": [],
      "name": "mint",
      "outputs": [],
      "stateMutability": "payable",
      "type": "function"
    },
    {
      "inputs": [],
      "name": "name",
      "outputs": [
        {
          "internalType": "string",
          "name": "",
          "type": "string"
        }
      ],
      "stateMutability": "view",
      "type": "function"
    },
    {
      "inputs": [],
      "name": "owner",
      "outputs": [
        {
          "internalType": "address",
          "name": "",
          "type": "address"
        }
      ],
      "stateMutability": "view",
      "type": "function"
    },
    {
      "inputs": [
        {
          "internalType": "uint256",
          "name": "tokenId",
          "type": "uint256"
        }
      ],
      "name": "ownerOf",
      "outputs": [
        {
          "internalType": "address",
          "name": "",
          "type": "address"
        }
      ],
      "stateMutability": "view",
      "type": "function"
    },
    {
      "inputs": [],
      "name": "renounceOwnership",
      "outputs": [],
      "stateMutability": "nonpayable",
      "type": "function"
    },
    {
      "inputs": [
        {
          "internalType": "address",
          "name": "from",
          "type": "address"
        },
        {
          "internalType": "address",
          "name": "to",
          "type": "address"
        },
        {
          "internalType": "uint256",
          "name": "tokenId",
          "type": "uint256"
        }
      ],
      "name": "safeTransferFrom",
      "outputs": [],
      "stateMutability": "nonpayable",
      "type": "function"
    },
    {
      "inputs": [
        {
          "internalType": "address",
          "name": "from",
          "type": "address"
        },
        {
          "internalType": "address",
          "name": "to",
          "type": "address"
        },
        {
          "internalType": "uint256",
          "name": "tokenId",
          "type": "uint256"
        },
        {
          "internalType": "bytes",
          "name": "data",
          "type": "bytes"
        }
      ],
      "name": "safeTransferFrom",
      "outputs": [],
      "stateMutability": "nonpayable",
      "type": "function"
    },
    {
      "inputs": [
        {
          "internalType": "address",
          "name": "operator",
          "type": "address"
        },
        {
          "internalType": "bool",
          "name": "approved",
          "type": "bool"
        }
      ],
      "name": "setApprovalForAll",
      "outputs": [],
      "stateMutability": "nonpayable",
      "type": "function"
    },
    {
      "inputs": [
        {
          "internalType": "uint256",
          "name": "tokenId",
          "type": "uint256"
        },
        {
          "internalType": "string",
          "name": "uri",
          "type": "string"
        }
      ],
      "name": "setCheckedInTokenURI",
      "outputs": [],
      "stateMutability": "nonpayable",
      "type": "function"
    },
    {
      "inputs": [
        {
          "internalType": "uint256",
          "name": "tokenId",
          "type": "uint256"
        },
        {
          "internalType": "string",
          "name": "uri",
          "type": "string"
        }
      ],
      "name": "setTokenURI",
      "outputs": [],
      "stateMutability": "nonpayable",
      "type": "function"
    },
    {
      "inputs": [
        {
          "internalType": "bytes4",
          "name": "interfaceId",
          "type": "bytes4"
        }
      ],
      "name": "supportsInterface",
      "outputs": [
        {
          "internalType": "bool",
          "name": "",
          "type": "bool"
        }
      ],
      "stateMutability": "view",
      "type": "function"
    },
    {
      "inputs": [],
      "name": "symbol",
      "outputs": [
        {
          "internalType": "string",
          "name": "",
          "type": "string"
        }
      ],
      "stateMutability": "view",
      "type": "function"
    },
    {
      "inputs": [
        {
          "internalType": "uint256",
          "name": "tokenId",
          "type": "uint256"
        }
      ],
      "name": "tokenURI",
      "outputs": [
        {
          "internalType": "string",
          "name": "",
          "type": "string"
        }
      ],
      "stateMutability": "view",
      "type": "function"
    },
    {
      "inputs": [
        {
          "internalType": "address",
          "name": "from",
          "type": "address"
        },
        {
          "internalType": "address",
          "name": "to",
          "type": "address"
        },
        {
          "internalType": "uint256",
          "name": "tokenId",
          "type": "uint256"
        }
      ],
      "name": "transferFrom",
      "outputs": [],
      "stateMutability": "nonpayable",
      "type": "function"
    },
    {
      "inputs": [
        {
          "internalType": "address",
          "name": "newOwner",
          "type": "address"
        }
      ],
      "name": "transferOwnership",
      "outputs": [],
      "stateMutability": "nonpayable",
      "type": "function"
    }
  ],
  "bytecode": "0x6080604052600a6009553480156200001657600080fd5b506040518060400160405280600a81526020017f436865636b496e4e4654000000000000000000000000000000000000000000008152506040518060400160405280600581526020017f43494e465400000000000000000000000000000000000000000000000000000081525081600090805190602001906200009b929190620001dd565b508060019080519060200190620000b4929190620001dd565b505050620000d7620000cb6200010f60201b60201c565b6200011760201b60201c565b6040518060600160405280602281526020016200318e602291396008908051906020019062000108929190620001dd565b50620002f2565b600033905090565b6000600760009054906101000a900473ffffffffffffffffffffffffffffffffffffffff16905081600760006101000a81548173ffffffffffffffffffffffffffffffffffffffff021916908373ffffffffffffffffffffffffffffffffffffffff1602179055508173ffffffffffffffffffffffffffffffffffffffff168173ffffffffffffffffffffffffffffffffffffffff167f8be0079c531659141344cd1fd0a4f28419497f9722a3daafe3b4186f6b6457e060405160405180910390a35050565b828054620001eb90620002bc565b90600052602060002090601f0160209004810192826200020f57600085556200025b565b82601f106200022a57805160ff19168380011785556200025b565b828001600101855582156200025b579182015b828111156200025a5782518255916020019190600101906200023d565b5b5090506200026a91906200026e565b5090565b5b80821115620002895760008160009055506001016200026f565b5090565b7f4e487b7100000000000000000000000000000000000000000000000000000000600052602260045260246000fd5b60006002820490506001821680620002d557607f821691505b60208210811415620002ec57620002eb6200028d565b5b50919050565b612e8c80620003026000396000f3fe6080604052600436106101405760003560e01c8063715018a6116100b6578063b88d4fde1161006f578063b88d4fde1461043b578063c87b56dd14610464578063c904d58f146104a1578063e95a644f146104ca578063e985e9c5146104f3578063f2fde38b1461053057610140565b8063715018a61461033d5780638da5cb5b1461035457806395d89b411461037f578063a22cb465146103aa578063abdd9744146103d3578063afbd17821461041057610140565b8063162094c411610108578063162094c41461021d57806323b872dd146102465780633cfa7e011461026f57806342842e0e1461029a5780636352211e146102c357806370a082311461030057610140565b806301ffc9a71461014557806306fdde0314610182578063081812fc146101ad578063095ea7b3146101ea5780631249c58b14610213575b600080fd5b34801561015157600080fd5b5061016c60048036038101906101679190611d84565b610559565b6040516101799190611dcc565b60405180910390f35b34801561018e57600080fd5b5061019761063b565b6040516101a49190611e80565b60405180910390f35b3480156101b957600080fd5b506101d460048036038101906101cf9190611ed8565b6106cd565b6040516101e19190611f46565b60405180910390f35b3480156101f657600080fd5b50610211600480360381019061020c9190611f8d565b610713565b005b61021b61082b565b005b34801561022957600080fd5b50610244600480360381019061023f9190612102565b6108ca565b005b34801561025257600080fd5b5061026d6004803603810190610268919061215e565b61093e565b005b34801561027b57600080fd5b5061028461099e565b60405161029191906121c0565b60405180910390f35b3480156102a657600080fd5b506102c160048036038101906102bc919061215e565b6109a4565b005b3480156102cf57600080fd5b506102ea60048036038101906102e59190611ed8565b6109c4565b6040516102f79190611f46565b60405180910390f35b34801561030c57600080fd5b50610327600480360381019061032291906121db565b610a4b565b60405161033491906121c0565b60405180910390f35b34801561034957600080fd5b50610352610b03565b005b34801561036057600080fd5b50610369610b17565b6040516103769190611f46565b60405180910390f35b34801561038b57600080fd5b50610394610b41565b6040516103a19190611e80565b60405180910390f35b3480156103b657600080fd5b506103d160048036038101906103cc9190612234565b610bd3565b005b3480156103df57600080fd5b506103fa60048036038101906103f59190611ed8565b610be9565b6040516104079190611dcc565b60405180910390f35b34801561041c57600080fd5b50610425610c13565b60405161043291906121c0565b60405180910390f35b34801561044757600080fd5b50610462600480360381019061045d9190612315565b610c18565b005b34801561047057600080fd5b5061048b60048036038101906104869190611ed8565b610c7a565b6040516104989190611e80565b60405180910390f35b3480156104ad57600080fd5b506104c860048036038101906104c39190612102565b610d63565b005b3480156104d657600080fd5b506104f160048036038101906104ec9190611ed8565b610dd7565b005b3480156104ff57600080fd5b5061051a60048036038101906105159190612398565b610e70565b6040516105279190611dcc565b60405180910390f35b34801561053c57600080fd5b50610557600480360381019061055291906121db565b610f04565b005b60007f80ac58cd000000000000000000000000000000000000000000000000000000007bffffffffffffffffffffffffffffffffffffffffffffffffffffffff1916827bffffffffffffffffffffffffffffffffffffffffffffffffffffffff1916148061062457507f5b5e139f000000000000000000000000000000000000000000000000000000007bffffffffffffffffffffffffffffffffffffffffffffffffffffffff1916827bffffffffffffffffffffffffffffffffffffffffffffffffffffffff1916145b80610634575061063382610f88565b5b9050919050565b60606000805461064a90612407565b80601f016020809104026020016040519081016040528092919081815260200182805461067690612407565b80156106c35780601f10610698576101008083540402835291602001916106c3565b820191906000526020600020905b8154815290600101906020018083116106a657829003601f168201915b5050505050905090565b60006106d882610ff2565b6004600083815260200190815260200160002060009054906101000a900473ffffffffffffffffffffffffffffffffffffffff169050919050565b600061071e826109c4565b90508073ffffffffffffffffffffffffffffffffffffffff168373ffffffffffffffffffffffffffffffffffffffff16141561078f576040517f08c379a0000000000000000000000000000000000000000000000000000000008152600401610786906124ab565b60405180910390fd5b8073ffffffffffffffffffffffffffffffffffffffff166107ae61103d565b73ffffffffffffffffffffffffffffffffffffffff1614806107dd57506107dc816107d761103d565b610e70565b5b61081c576040517f08c379a00000000000000000000000000000000000000000000000000000000081526004016108139061253d565b60405180910390fd5b6108268383611045565b505050565b600060095411610870576040517f08c379a0000000000000000000000000000000000000000000000000000000008152600401610867906125a9565b60405180910390fd5b6000600954600a61088191906125f8565b905061088d33826110fe565b6108af81604051806060016040528060338152602001612e24603391396108ca565b600960008154809291906108c29061262c565b919050555050565b6108d38261111c565b610912576040517f08c379a0000000000000000000000000000000000000000000000000000000008152600401610909906126a2565b60405180910390fd5b80600b60008481526020019081526020016000209080519060200190610939929190611c75565b505050565b61094f61094961103d565b8261115d565b61098e576040517f08c379a000000000000000000000000000000000000000000000000000000000815260040161098590612734565b60405180910390fd5b6109998383836111f2565b505050565b60095481565b6109bf83838360405180602001604052806000815250610c18565b505050565b6000806109d0836114ec565b9050600073ffffffffffffffffffffffffffffffffffffffff168173ffffffffffffffffffffffffffffffffffffffff161415610a42576040517f08c379a0000000000000000000000000000000000000000000000000000000008152600401610a39906127a0565b60405180910390fd5b80915050919050565b60008073ffffffffffffffffffffffffffffffffffffffff168273ffffffffffffffffffffffffffffffffffffffff161415610abc576040517f08c379a0000000000000000000000000000000000000000000000000000000008152600401610ab390612832565b60405180910390fd5b600360008373ffffffffffffffffffffffffffffffffffffffff1673ffffffffffffffffffffffffffffffffffffffff168152602001908152602001600020549050919050565b610b0b611529565b610b1560006115a7565b565b6000600760009054906101000a900473ffffffffffffffffffffffffffffffffffffffff16905090565b606060018054610b5090612407565b80601f0160208091040260200160405190810160405280929190818152602001828054610b7c90612407565b8015610bc95780601f10610b9e57610100808354040283529160200191610bc9565b820191906000526020600020905b815481529060010190602001808311610bac57829003601f168201915b5050505050905090565b610be5610bde61103d565b838361166d565b5050565b6000600a600083815260200190815260200160002060009054906101000a900460ff169050919050565b600a81565b610c29610c2361103d565b8361115d565b610c68576040517f08c379a0000000000000000000000000000000000000000000000000000000008152600401610c5f90612734565b60405180910390fd5b610c74848484846117da565b50505050565b6060610c858261111c565b610cc4576040517f08c379a0000000000000000000000000000000000000000000000000000000008152600401610cbb906126a2565b60405180910390fd5b600a600083815260200190815260200160002060009054906101000a900460ff1615610d26576008600c6000848152602001908152602001600020604051602001610d109291906128f1565b6040516020818303038152906040529050610d5e565b6008600b6000848152602001908152602001600020604051602001610d4c9291906128f1565b60405160208183030381529060405290505b919050565b610d6c8261111c565b610dab576040517f08c379a0000000000000000000000000000000000000000000000000000000008152600401610da2906126a2565b60405180910390fd5b80600c60008481526020019081526020016000209080519060200190610dd2929190611c75565b505050565b610de08161111c565b610e1f576040517f08c379a0000000000000000000000000000000000000000000000000000000008152600401610e16906126a2565b60405180910390fd5b6001600a600083815260200190815260200160002060006101000a81548160ff021916908315150217905550610e6d81604051806060016040528060338152602001612df160339139610d63565b50565b6000600560008473ffffffffffffffffffffffffffffffffffffffff1673ffffffffffffffffffffffffffffffffffffffff16815260200190815260200160002060008373ffffffffffffffffffffffffffffffffffffffff1673ffffffffffffffffffffffffffffffffffffffff16815260200190815260200160002060009054906101000a900460ff16905092915050565b610f0c611529565b600073ffffffffffffffffffffffffffffffffffffffff168173ffffffffffffffffffffffffffffffffffffffff161415610f7c576040517f08c379a0000000000000000000000000000000000000000000000000000000008152600401610f7390612987565b60405180910390fd5b610f85816115a7565b50565b60007f01ffc9a7000000000000000000000000000000000000000000000000000000007bffffffffffffffffffffffffffffffffffffffffffffffffffffffff1916827bffffffffffffffffffffffffffffffffffffffffffffffffffffffff1916149050919050565b610ffb8161111c565b61103a576040517f08c379a0000000000000000000000000000000000000000000000000000000008152600401611031906127a0565b60405180910390fd5b50565b600033905090565b816004600083815260200190815260200160002060006101000a81548173ffffffffffffffffffffffffffffffffffffffff021916908373ffffffffffffffffffffffffffffffffffffffff160217905550808273ffffffffffffffffffffffffffffffffffffffff166110b8836109c4565b73ffffffffffffffffffffffffffffffffffffffff167f8c5be1e5ebec7d5bd14f71427d1e84f3dd0314c0f7b2291e5b200ac8c7c3b92560405160405180910390a45050565b611118828260405180602001604052806000815250611836565b5050565b60008073ffffffffffffffffffffffffffffffffffffffff1661113e836114ec565b73ffffffffffffffffffffffffffffffffffffffff1614159050919050565b600080611169836109c4565b90508073ffffffffffffffffffffffffffffffffffffffff168473ffffffffffffffffffffffffffffffffffffffff1614806111ab57506111aa8185610e70565b5b806111e957508373ffffffffffffffffffffffffffffffffffffffff166111d1846106cd565b73ffffffffffffffffffffffffffffffffffffffff16145b91505092915050565b8273ffffffffffffffffffffffffffffffffffffffff16611212826109c4565b73ffffffffffffffffffffffffffffffffffffffff1614611268576040517f08c379a000000000000000000000000000000000000000000000000000000000815260040161125f90612a19565b60405180910390fd5b600073ffffffffffffffffffffffffffffffffffffffff168273ffffffffffffffffffffffffffffffffffffffff1614156112d8576040517f08c379a00000000000000000000000000000000000000000000000000000000081526004016112cf90612aab565b60405180910390fd5b6112e58383836001611891565b8273ffffffffffffffffffffffffffffffffffffffff16611305826109c4565b73ffffffffffffffffffffffffffffffffffffffff161461135b576040517f08c379a000000000000000000000000000000000000000000000000000000000815260040161135290612a19565b60405180910390fd5b6004600082815260200190815260200160002060006101000a81549073ffffffffffffffffffffffffffffffffffffffff02191690556001600360008573ffffffffffffffffffffffffffffffffffffffff1673ffffffffffffffffffffffffffffffffffffffff168152602001908152602001600020600082825403925050819055506001600360008473ffffffffffffffffffffffffffffffffffffffff1673ffffffffffffffffffffffffffffffffffffffff16815260200190815260200160002060008282540192505081905550816002600083815260200190815260200160002060006101000a81548173ffffffffffffffffffffffffffffffffffffffff021916908373ffffffffffffffffffffffffffffffffffffffff160217905550808273ffffffffffffffffffffffffffffffffffffffff168473ffffffffffffffffffffffffffffffffffffffff167fddf252ad1be2c89b69c2b068fc378daa952ba7f163c4a11628f55a4df523b3ef60405160405180910390a46114e78383836001611897565b505050565b60006002600083815260200190815260200160002060009054906101000a900473ffffffffffffffffffffffffffffffffffffffff169050919050565b61153161103d565b73ffffffffffffffffffffffffffffffffffffffff1661154f610b17565b73ffffffffffffffffffffffffffffffffffffffff16146115a5576040517f08c379a000000000000000000000000000000000000000000000000000000000815260040161159c90612b17565b60405180910390fd5b565b6000600760009054906101000a900473ffffffffffffffffffffffffffffffffffffffff16905081600760006101000a81548173ffffffffffffffffffffffffffffffffffffffff021916908373ffffffffffffffffffffffffffffffffffffffff1602179055508173ffffffffffffffffffffffffffffffffffffffff168173ffffffffffffffffffffffffffffffffffffffff167f8be0079c531659141344cd1fd0a4f28419497f9722a3daafe3b4186f6b6457e060405160405180910390a35050565b8173ffffffffffffffffffffffffffffffffffffffff168373ffffffffffffffffffffffffffffffffffffffff1614156116dc576040517f08c379a00000000000000000000000000000000000000000000000000000000081526004016116d390612b83565b60405180910390fd5b80600560008573ffffffffffffffffffffffffffffffffffffffff1673ffffffffffffffffffffffffffffffffffffffff16815260200190815260200160002060008473ffffffffffffffffffffffffffffffffffffffff1673ffffffffffffffffffffffffffffffffffffffff16815260200190815260200160002060006101000a81548160ff0219169083151502179055508173ffffffffffffffffffffffffffffffffffffffff168373ffffffffffffffffffffffffffffffffffffffff167f17307eab39ab6107e8899845ad3d59bd9653f200f220920489ca2b5937696c31836040516117cd9190611dcc565b60405180910390a3505050565b6117e58484846111f2565b6117f18484848461189d565b611830576040517f08c379a000000000000000000000000000000000000000000000000000000000815260040161182790612c15565b60405180910390fd5b50505050565b6118408383611a34565b61184d600084848461189d565b61188c576040517f08c379a000000000000000000000000000000000000000000000000000000000815260040161188390612c15565b60405180910390fd5b505050565b50505050565b50505050565b60006118be8473ffffffffffffffffffffffffffffffffffffffff16611c52565b15611a27578373ffffffffffffffffffffffffffffffffffffffff1663150b7a026118e761103d565b8786866040518563ffffffff1660e01b81526004016119099493929190612c8a565b602060405180830381600087803b15801561192357600080fd5b505af192505050801561195457506040513d601f19601f820116820180604052508101906119519190612ceb565b60015b6119d7573d8060008114611984576040519150601f19603f3d011682016040523d82523d6000602084013e611989565b606091505b506000815114156119cf576040517f08c379a00000000000000000000000000000000000000000000000000000000081526004016119c690612c15565b60405180910390fd5b805181602001fd5b63150b7a0260e01b7bffffffffffffffffffffffffffffffffffffffffffffffffffffffff1916817bffffffffffffffffffffffffffffffffffffffffffffffffffffffff191614915050611a2c565b600190505b949350505050565b600073ffffffffffffffffffffffffffffffffffffffff168273ffffffffffffffffffffffffffffffffffffffff161415611aa4576040517f08c379a0000000000000000000000000000000000000000000000000000000008152600401611a9b90612d64565b60405180910390fd5b611aad8161111c565b15611aed576040517f08c379a0000000000000000000000000000000000000000000000000000000008152600401611ae490612dd0565b60405180910390fd5b611afb600083836001611891565b611b048161111c565b15611b44576040517f08c379a0000000000000000000000000000000000000000000000000000000008152600401611b3b90612dd0565b60405180910390fd5b6001600360008473ffffffffffffffffffffffffffffffffffffffff1673ffffffffffffffffffffffffffffffffffffffff16815260200190815260200160002060008282540192505081905550816002600083815260200190815260200160002060006101000a81548173ffffffffffffffffffffffffffffffffffffffff021916908373ffffffffffffffffffffffffffffffffffffffff160217905550808273ffffffffffffffffffffffffffffffffffffffff16600073ffffffffffffffffffffffffffffffffffffffff167fddf252ad1be2c89b69c2b068fc378daa952ba7f163c4a11628f55a4df523b3ef60405160405180910390a4611c4e600083836001611897565b5050565b6000808273ffffffffffffffffffffffffffffffffffffffff163b119050919050565b828054611c8190612407565b90600052602060002090601f016020900481019282611ca35760008555611cea565b82601f10611cbc57805160ff1916838001178555611cea565b82800160010185558215611cea579182015b82811115611ce9578251825591602001919060010190611cce565b5b509050611cf79190611cfb565b5090565b5b80821115611d14576000816000905550600101611cfc565b5090565b6000604051905090565b600080fd5b600080fd5b60007fffffffff0000000000000000000000000000000000000000000000000000000082169050919050565b611d6181611d2c565b8114611d6c57600080fd5b50565b600081359050611d7e81611d58565b92915050565b600060208284031215611d9a57611d99611d22565b5b6000611da884828501611d6f565b91505092915050565b60008115159050919050565b611dc681611db1565b82525050565b6000602082019050611de16000830184611dbd565b92915050565b600081519050919050565b600082825260208201905092915050565b60005b83811015611e21578082015181840152602081019050611e06565b83811115611e30576000848401525b50505050565b6000601f19601f8301169050919050565b6000611e5282611de7565b611e5c8185611df2565b9350611e6c818560208601611e03565b611e7581611e36565b840191505092915050565b60006020820190508181036000830152611e9a8184611e47565b905092915050565b6000819050919050565b611eb581611ea2565b8114611ec057600080fd5b50565b600081359050611ed281611eac565b92915050565b600060208284031215611eee57611eed611d22565b5b6000611efc84828501611ec3565b91505092915050565b600073ffffffffffffffffffffffffffffffffffffffff82169050919050565b6000611f3082611f05565b9050919050565b611f4081611f25565b82525050565b6000602082019050611f5b6000830184611f37565b92915050565b611f6a81611f25565b8114611f7557600080fd5b50565b600081359050611f8781611f61565b92915050565b60008060408385031215611fa457611fa3611d22565b5b6000611fb285828601611f78565b9250506020611fc385828601611ec3565b9150509250929050565b600080fd5b600080fd5b7f4e487b7100000000000000000000000000000000000000000000000000000000600052604160045260246000fd5b61200f82611e36565b810181811067ffffffffffffffff8211171561202e5761202d611fd7565b5b80604052505050565b6000612041611d18565b905061204d8282612006565b919050565b600067ffffffffffffffff82111561206d5761206c611fd7565b5b61207682611e36565b9050602081019050919050565b82818337600083830152505050565b60006120a56120a084612052565b612037565b9050828152602081018484840111156120c1576120c0611fd2565b5b6120cc848285612083565b509392505050565b600082601f8301126120e9576120e8611fcd565b5b81356120f9848260208601612092565b91505092915050565b6000806040838503121561211957612118611d22565b5b600061212785828601611ec3565b925050602083013567ffffffffffffffff81111561214857612147611d27565b5b612154858286016120d4565b9150509250929050565b60008060006060848603121561217757612176611d22565b5b600061218586828701611f78565b935050602061219686828701611f78565b92505060406121a786828701611ec3565b9150509250925092565b6121ba81611ea2565b82525050565b60006020820190506121d560008301846121b1565b92915050565b6000602082840312156121f1576121f0611d22565b5b60006121ff84828501611f78565b91505092915050565b61221181611db1565b811461221c57600080fd5b50565b60008135905061222e81612208565b92915050565b6000806040838503121561224b5761224a611d22565b5b600061225985828601611f78565b925050602061226a8582860161221f565b9150509250929050565b600067ffffffffffffffff82111561228f5761228e611fd7565b5b61229882611e36565b9050602081019050919050565b60006122b86122b384612274565b612037565b9050828152602081018484840111156122d4576122d3611fd2565b5b6122df848285612083565b509392505050565b600082601f8301126122fc576122fb611fcd565b5b813561230c8482602086016122a5565b91505092915050565b6000806000806080858703121561232f5761232e611d22565b5b600061233d87828801611f78565b945050602061234e87828801611f78565b935050604061235f87828801611ec3565b925050606085013567ffffffffffffffff8111156123805761237f611d27565b5b61238c878288016122e7565b91505092959194509250565b600080604083850312156123af576123ae611d22565b5b60006123bd85828601611f78565b92505060206123ce85828601611f78565b9150509250929050565b7f4e487b7100000000000000000000000000000000000000000000000000000000600052602260045260246000fd5b6000600282049050600182168061241f57607f821691505b60208210811415612433576124326123d8565b5b50919050565b7f4552433732313a20617070726f76616c20746f2063757272656e74206f776e6560008201527f7200000000000000000000000000000000000000000000000000000000000000602082015250565b6000612495602183611df2565b91506124a082612439565b604082019050919050565b600060208201905081810360008301526124c481612488565b9050919050565b7f4552433732313a20617070726f76652063616c6c6572206973206e6f7420746f60008201527f6b656e206f776e6572206f7220617070726f76656420666f7220616c6c000000602082015250565b6000612527603d83611df2565b9150612532826124cb565b604082019050919050565b600060208201905081810360008301526125568161251a565b9050919050565b7f4e6f206d6f7265207469636b65747320617661696c61626c6500000000000000600082015250565b6000612593601983611df2565b915061259e8261255d565b602082019050919050565b600060208201905081810360008301526125c281612586565b9050919050565b7f4e487b7100000000000000000000000000000000000000000000000000000000600052601160045260246000fd5b600061260382611ea2565b915061260e83611ea2565b925082821015612621576126206125c9565b5b828203905092915050565b600061263782611ea2565b9150600082141561264b5761264a6125c9565b5b600182039050919050565b7f546f6b656e204944206e6f7420666f756e640000000000000000000000000000600082015250565b600061268c601283611df2565b915061269782612656565b602082019050919050565b600060208201905081810360008301526126bb8161267f565b9050919050565b7f4552433732313a2063616c6c6572206973206e6f7420746f6b656e206f776e6560008201527f72206f7220617070726f76656400000000000000000000000000000000000000602082015250565b600061271e602d83611df2565b9150612729826126c2565b604082019050919050565b6000602082019050818103600083015261274d81612711565b9050919050565b7f4552433732313a20696e76616c696420746f6b656e2049440000000000000000600082015250565b600061278a601883611df2565b915061279582612754565b602082019050919050565b600060208201905081810360008301526127b98161277d565b9050919050565b7f4552433732313a2061646472657373207a65726f206973206e6f74206120766160008201527f6c6964206f776e65720000000000000000000000000000000000000000000000602082015250565b600061281c602983611df2565b9150612827826127c0565b604082019050919050565b6000602082019050818103600083015261284b8161280f565b9050919050565b600081905092915050565b60008190508160005260206000209050919050565b6000815461287f81612407565b6128898186612852565b945060018216600081146128a457600181146128b5576128e8565b60ff198316865281860193506128e8565b6128be8561285d565b60005b838110156128e0578154818901526001820191506020810190506128c1565b838801955050505b50505092915050565b60006128fd8285612872565b91506129098284612872565b91508190509392505050565b7f4f776e61626c653a206e6577206f776e657220697320746865207a65726f206160008201527f6464726573730000000000000000000000000000000000000000000000000000602082015250565b6000612971602683611df2565b915061297c82612915565b604082019050919050565b600060208201905081810360008301526129a081612964565b9050919050565b7f4552433732313a207472616e736665722066726f6d20696e636f72726563742060008201527f6f776e6572000000000000000000000000000000000000000000000000000000602082015250565b6000612a03602583611df2565b9150612a0e826129a7565b604082019050919050565b60006020820190508181036000830152612a32816129f6565b9050919050565b7f4552433732313a207472616e7366657220746f20746865207a65726f2061646460008201527f7265737300000000000000000000000000000000000000000000000000000000602082015250565b6000612a95602483611df2565b9150612aa082612a39565b604082019050919050565b60006020820190508181036000830152612ac481612a88565b9050919050565b7f4f776e61626c653a2063616c6c6572206973206e6f7420746865206f776e6572600082015250565b6000612b01602083611df2565b9150612b0c82612acb565b602082019050919050565b60006020820190508181036000830152612b3081612af4565b9050919050565b7f4552433732313a20617070726f766520746f2063616c6c657200000000000000600082015250565b6000612b6d601983611df2565b9150612b7882612b37565b602082019050919050565b60006020820190508181036000830152612b9c81612b60565b9050919050565b7f4552433732313a207472616e7366657220746f206e6f6e20455243373231526560008201527f63656976657220696d706c656d656e7465720000000000000000000000000000602082015250565b6000612bff603283611df2565b9150612c0a82612ba3565b604082019050919050565b60006020820190508181036000830152612c2e81612bf2565b9050919050565b600081519050919050565b600082825260208201905092915050565b6000612c5c82612c35565b612c668185612c40565b9350612c76818560208601611e03565b612c7f81611e36565b840191505092915050565b6000608082019050612c9f6000830187611f37565b612cac6020830186611f37565b612cb960408301856121b1565b8181036060830152612ccb8184612c51565b905095945050505050565b600081519050612ce581611d58565b92915050565b600060208284031215612d0157612d00611d22565b5b6000612d0f84828501612cd6565b91505092915050565b7f4552433732313a206d696e7420746f20746865207a65726f2061646472657373600082015250565b6000612d4e602083611df2565b9150612d5982612d18565b602082019050919050565b60006020820190508181036000830152612d7d81612d41565b9050919050565b7f4552433732313a20746f6b656e20616c7265616479206d696e74656400000000600082015250565b6000612dba601c83611df2565b9150612dc582612d84565b602082019050919050565b60006020820190508181036000830152612de981612dad565b905091905056fe516d5575584a736157484c5831763655546d4a32776339727a74366750626f7569584d6a7173514e624b50466d6a2f7b69647d516d504462443748437879696f4862545961316d5255515a6563584c73545141444545326a6e736d6634724a70582f7b69647da26469706673582212202249df7084ea25b1f6c97b949efc6db7d6b401090df4e8e3aaa5c552b8b6537e64736f6c6343000809003368747470733a2f2f676174657761792e70696e6174612e636c6f75642f697066732f",
  "linkReferences": {},
  "deployedLinkReferences": {}
}